{
	"data": {
		"bytecode": {
			"linkReferences": {},
			"object": "60806040526000805534801561001457600080fd5b506101aa806100246000396000f3fe608060405234801561001057600080fd5b50600436106100415760003560e01c806366a101ce146100465780639ff9a60314610064578063e5aa3d581461006e575b600080fd5b61004e61008c565b60405161005b91906100f6565b60405180910390f35b61006c610092565b005b6100766100d7565b60405161008391906100f6565b60405180910390f35b60015481565b5b6001156100d4576064600054116100d557600a600054036100b6575a6001819055505b60016000808282546100c89190610140565b92505081905550610093565b5b565b60005481565b6000819050919050565b6100f0816100dd565b82525050565b600060208201905061010b60008301846100e7565b92915050565b7f4e487b7100000000000000000000000000000000000000000000000000000000600052601160045260246000fd5b600061014b826100dd565b9150610156836100dd565b925082820190508082111561016e5761016d610111565b5b9291505056fea264697066735822122012b4c5e99f6903488a3cdf0779c0bb1d2aff7d3063cd42f5b386ef48d9d0bc8d64736f6c63430008110033",
			"opcodes": "PUSH1 0x80 PUSH1 0x40 MSTORE PUSH1 0x0 DUP1 SSTORE CALLVALUE DUP1 ISZERO PUSH2 0x14 JUMPI PUSH1 0x0 DUP1 REVERT JUMPDEST POP PUSH2 0x1AA DUP1 PUSH2 0x24 PUSH1 0x0 CODECOPY PUSH1 0x0 RETURN INVALID PUSH1 0x80 PUSH1 0x40 MSTORE CALLVALUE DUP1 ISZERO PUSH2 0x10 JUMPI PUSH1 0x0 DUP1 REVERT JUMPDEST POP PUSH1 0x4 CALLDATASIZE LT PUSH2 0x41 JUMPI PUSH1 0x0 CALLDATALOAD PUSH1 0xE0 SHR DUP1 PUSH4 0x66A101CE EQ PUSH2 0x46 JUMPI DUP1 PUSH4 0x9FF9A603 EQ PUSH2 0x64 JUMPI DUP1 PUSH4 0xE5AA3D58 EQ PUSH2 0x6E JUMPI JUMPDEST PUSH1 0x0 DUP1 REVERT JUMPDEST PUSH2 0x4E PUSH2 0x8C JUMP JUMPDEST PUSH1 0x40 MLOAD PUSH2 0x5B SWAP2 SWAP1 PUSH2 0xF6 JUMP JUMPDEST PUSH1 0x40 MLOAD DUP1 SWAP2 SUB SWAP1 RETURN JUMPDEST PUSH2 0x6C PUSH2 0x92 JUMP JUMPDEST STOP JUMPDEST PUSH2 0x76 PUSH2 0xD7 JUMP JUMPDEST PUSH1 0x40 MLOAD PUSH2 0x83 SWAP2 SWAP1 PUSH2 0xF6 JUMP JUMPDEST PUSH1 0x40 MLOAD DUP1 SWAP2 SUB SWAP1 RETURN JUMPDEST PUSH1 0x1 SLOAD DUP2 JUMP JUMPDEST JUMPDEST PUSH1 0x1 ISZERO PUSH2 0xD4 JUMPI PUSH1 0x64 PUSH1 0x0 SLOAD GT PUSH2 0xD5 JUMPI PUSH1 0xA PUSH1 0x0 SLOAD SUB PUSH2 0xB6 JUMPI GAS PUSH1 0x1 DUP2 SWAP1 SSTORE POP JUMPDEST PUSH1 0x1 PUSH1 0x0 DUP1 DUP3 DUP3 SLOAD PUSH2 0xC8 SWAP2 SWAP1 PUSH2 0x140 JUMP JUMPDEST SWAP3 POP POP DUP2 SWAP1 SSTORE POP PUSH2 0x93 JUMP JUMPDEST JUMPDEST JUMP JUMPDEST PUSH1 0x0 SLOAD DUP2 JUMP JUMPDEST PUSH1 0x0 DUP2 SWAP1 POP SWAP2 SWAP1 POP JUMP JUMPDEST PUSH2 0xF0 DUP2 PUSH2 0xDD JUMP JUMPDEST DUP3 MSTORE POP POP JUMP JUMPDEST PUSH1 0x0 PUSH1 0x20 DUP3 ADD SWAP1 POP PUSH2 0x10B PUSH1 0x0 DUP4 ADD DUP5 PUSH2 0xE7 JUMP JUMPDEST SWAP3 SWAP2 POP POP JUMP JUMPDEST PUSH32 0x4E487B7100000000000000000000000000000000000000000000000000000000 PUSH1 0x0 MSTORE PUSH1 0x11 PUSH1 0x4 MSTORE PUSH1 0x24 PUSH1 0x0 REVERT JUMPDEST PUSH1 0x0 PUSH2 0x14B DUP3 PUSH2 0xDD JUMP JUMPDEST SWAP2 POP PUSH2 0x156 DUP4 PUSH2 0xDD JUMP JUMPDEST SWAP3 POP DUP3 DUP3 ADD SWAP1 POP DUP1 DUP3 GT ISZERO PUSH2 0x16E JUMPI PUSH2 0x16D PUSH2 0x111 JUMP JUMPDEST JUMPDEST SWAP3 SWAP2 POP POP JUMP INVALID LOG2 PUSH5 0x6970667358 0x22 SLT KECCAK256 SLT 0xB4 0xC5 0xE9 SWAP16 PUSH10 0x3488A3CDF0779C0BB1D 0x2A SELFDESTRUCT PUSH30 0x3063CD42F5B386EF48D9D0BC8D64736F6C63430008110033000000000000 "
		},
		"gasEstimates": {
			"creation": {
				"codeDepositCost": "85200",
				"executionCost": "5141",
				"totalCost": "90341"
			},
			"external": {
				"forever()": "infinite",
				"i()": "2451",
				"remained()": "2407"
			}
		},
		"methodIdentifiers": {
			"forever()": "9ff9a603",
			"i()": "e5aa3d58",
			"remained()": "66a101ce"
		}
	},
	"abi": [
		{
			"inputs": [],
			"name": "forever",
			"outputs": [],
			"stateMutability": "nonpayable",
			"type": "function"
		},
		{
			"inputs": [],
			"name": "i",
			"outputs": [
				{
					"internalType": "uint256",
					"name": "",
					"type": "uint256"
				}
			],
			"stateMutability": "view",
			"type": "function"
		},
		{
			"inputs": [],
			"name": "remained",
			"outputs": [
				{
					"internalType": "uint256",
					"name": "",
					"type": "uint256"
				}
			],
			"stateMutability": "view",
			"type": "function"
		}
	]
}