{
	"forever.sol": {
		"GasCaller": {
			"abi": [
				{
					"inputs": [
						{
							"internalType": "address",
							"name": "_gas",
							"type": "address"
						}
					],
					"stateMutability": "nonpayable",
					"type": "constructor"
				},
				{
					"inputs": [],
					"name": "callForever",
					"outputs": [],
					"stateMutability": "nonpayable",
					"type": "function"
				}
			],
			"devdoc": {
				"kind": "dev",
				"methods": {},
				"version": 1
			},
			"evm": {
				"assembly": "    /* \"forever.sol\":770:1105  contract GasCaller{... */\n  mstore(0x40, 0x80)\n    /* \"forever.sol\":811:864  constructor(address _gas) {... */\n  callvalue\n  dup1\n  iszero\n  tag_1\n  jumpi\n  0x00\n  dup1\n  revert\ntag_1:\n  pop\n  mload(0x40)\n  sub(codesize, bytecodeSize)\n  dup1\n  bytecodeSize\n  dup4\n  codecopy\n  dup2\n  dup2\n  add\n  0x40\n  mstore\n  dup2\n  add\n  swap1\n  tag_2\n  swap2\n  swap1\n  tag_3\n  jump\t// in\ntag_2:\n    /* \"forever.sol\":853:857  _gas */\n  dup1\n    /* \"forever.sol\":847:850  gas */\n  0x00\n  dup1\n    /* \"forever.sol\":847:857  gas = _gas */\n  0x0100\n  exp\n  dup2\n  sload\n  dup2\n  0xffffffffffffffffffffffffffffffffffffffff\n  mul\n  not\n  and\n  swap1\n  dup4\n  0xffffffffffffffffffffffffffffffffffffffff\n  and\n  mul\n  or\n  swap1\n  sstore\n  pop\n    /* \"forever.sol\":811:864  constructor(address _gas) {... */\n  pop\n    /* \"forever.sol\":770:1105  contract GasCaller{... */\n  jump(tag_6)\n    /* \"#utility.yul\":88:205   */\ntag_8:\n    /* \"#utility.yul\":197:198   */\n  0x00\n    /* \"#utility.yul\":194:195   */\n  dup1\n    /* \"#utility.yul\":187:199   */\n  revert\n    /* \"#utility.yul\":334:460   */\ntag_10:\n    /* \"#utility.yul\":371:378   */\n  0x00\n    /* \"#utility.yul\":411:453   */\n  0xffffffffffffffffffffffffffffffffffffffff\n    /* \"#utility.yul\":404:409   */\n  dup3\n    /* \"#utility.yul\":400:454   */\n  and\n    /* \"#utility.yul\":389:454   */\n  swap1\n  pop\n    /* \"#utility.yul\":334:460   */\n  swap2\n  swap1\n  pop\n  jump\t// out\n    /* \"#utility.yul\":466:562   */\ntag_11:\n    /* \"#utility.yul\":503:510   */\n  0x00\n    /* \"#utility.yul\":532:556   */\n  tag_20\n    /* \"#utility.yul\":550:555   */\n  dup3\n    /* \"#utility.yul\":532:556   */\n  tag_10\n  jump\t// in\ntag_20:\n    /* \"#utility.yul\":521:556   */\n  swap1\n  pop\n    /* \"#utility.yul\":466:562   */\n  swap2\n  swap1\n  pop\n  jump\t// out\n    /* \"#utility.yul\":568:690   */\ntag_12:\n    /* \"#utility.yul\":641:665   */\n  tag_22\n    /* \"#utility.yul\":659:664   */\n  dup2\n    /* \"#utility.yul\":641:665   */\n  tag_11\n  jump\t// in\ntag_22:\n    /* \"#utility.yul\":634:639   */\n  dup2\n    /* \"#utility.yul\":631:666   */\n  eq\n    /* \"#utility.yul\":621:684   */\n  tag_23\n  jumpi\n    /* \"#utility.yul\":680:681   */\n  0x00\n    /* \"#utility.yul\":677:678   */\n  dup1\n    /* \"#utility.yul\":670:682   */\n  revert\n    /* \"#utility.yul\":621:684   */\ntag_23:\n    /* \"#utility.yul\":568:690   */\n  pop\n  jump\t// out\n    /* \"#utility.yul\":696:839   */\ntag_13:\n    /* \"#utility.yul\":753:758   */\n  0x00\n    /* \"#utility.yul\":784:790   */\n  dup2\n    /* \"#utility.yul\":778:791   */\n  mload\n    /* \"#utility.yul\":769:791   */\n  swap1\n  pop\n    /* \"#utility.yul\":800:833   */\n  tag_25\n    /* \"#utility.yul\":827:832   */\n  dup2\n    /* \"#utility.yul\":800:833   */\n  tag_12\n  jump\t// in\ntag_25:\n    /* \"#utility.yul\":696:839   */\n  swap3\n  swap2\n  pop\n  pop\n  jump\t// out\n    /* \"#utility.yul\":845:1196   */\ntag_3:\n    /* \"#utility.yul\":915:921   */\n  0x00\n    /* \"#utility.yul\":964:966   */\n  0x20\n    /* \"#utility.yul\":952:961   */\n  dup3\n    /* \"#utility.yul\":943:950   */\n  dup5\n    /* \"#utility.yul\":939:962   */\n  sub\n    /* \"#utility.yul\":935:967   */\n  slt\n    /* \"#utility.yul\":932:1051   */\n  iszero\n  tag_27\n  jumpi\n    /* \"#utility.yul\":970:1049   */\n  tag_28\n  tag_8\n  jump\t// in\ntag_28:\n    /* \"#utility.yul\":932:1051   */\ntag_27:\n    /* \"#utility.yul\":1090:1091   */\n  0x00\n    /* \"#utility.yul\":1115:1179   */\n  tag_29\n    /* \"#utility.yul\":1171:1178   */\n  dup5\n    /* \"#utility.yul\":1162:1168   */\n  dup3\n    /* \"#utility.yul\":1151:1160   */\n  dup6\n    /* \"#utility.yul\":1147:1169   */\n  add\n    /* \"#utility.yul\":1115:1179   */\n  tag_13\n  jump\t// in\ntag_29:\n    /* \"#utility.yul\":1105:1179   */\n  swap2\n  pop\n    /* \"#utility.yul\":1061:1189   */\n  pop\n    /* \"#utility.yul\":845:1196   */\n  swap3\n  swap2\n  pop\n  pop\n  jump\t// out\n    /* \"forever.sol\":770:1105  contract GasCaller{... */\ntag_6:\n  dataSize(sub_0)\n  dup1\n  dataOffset(sub_0)\n  0x00\n  codecopy\n  0x00\n  return\nstop\n\nsub_0: assembly {\n        /* \"forever.sol\":770:1105  contract GasCaller{... */\n      mstore(0x40, 0x80)\n      callvalue\n      dup1\n      iszero\n      tag_1\n      jumpi\n      0x00\n      dup1\n      revert\n    tag_1:\n      pop\n      jumpi(tag_2, lt(calldatasize, 0x04))\n      shr(0xe0, calldataload(0x00))\n      dup1\n      0xc6a48535\n      eq\n      tag_3\n      jumpi\n    tag_2:\n      0x00\n      dup1\n      revert\n        /* \"forever.sol\":869:1103  function callForever() public {... */\n    tag_3:\n      tag_4\n      tag_5\n      jump\t// in\n    tag_4:\n      stop\n    tag_5:\n        /* \"forever.sol\":909:924  bytes memory cd */\n      0x00\n        /* \"forever.sol\":927:963  abi.encodeWithSignature(\"forever()\") */\n      add(0x24, mload(0x40))\n      mload(0x40)\n      0x20\n      dup2\n      dup4\n      sub\n      sub\n      dup2\n      mstore\n      swap1\n      0x40\n      mstore\n      and(not(0xffffffffffffffffffffffffffffffffffffffffffffffffffffffff), 0x9ff9a60300000000000000000000000000000000000000000000000000000000)\n      0x20\n      dup3\n      add\n      dup1\n      mload\n      0xffffffffffffffffffffffffffffffffffffffffffffffffffffffff\n      dup4\n      dup2\n      dup4\n      and\n      or\n      dup4\n      mstore\n      pop\n      pop\n      pop\n      pop\n        /* \"forever.sol\":909:963  bytes memory cd = abi.encodeWithSignature(\"forever()\") */\n      swap1\n      pop\n        /* \"forever.sol\":974:982  bool suc */\n      0x00\n        /* \"forever.sol\":984:1001  bytes memory data */\n      dup1\n        /* \"forever.sol\":1005:1008  gas */\n      0x00\n      dup1\n      sload\n      swap1\n      0x0100\n      exp\n      swap1\n      div\n      0xffffffffffffffffffffffffffffffffffffffff\n      and\n        /* \"forever.sol\":1005:1013  gas.call */\n      0xffffffffffffffffffffffffffffffffffffffff\n      and\n        /* \"forever.sol\":1019:1025  100000 */\n      0x0186a0\n        /* \"forever.sol\":1027:1029  cd */\n      dup5\n        /* \"forever.sol\":1005:1030  gas.call{gas: 100000}(cd) */\n      mload(0x40)\n      tag_7\n      swap2\n      swap1\n      tag_8\n      jump\t// in\n    tag_7:\n      0x00\n      mload(0x40)\n      dup1\n      dup4\n      sub\n      dup2\n      0x00\n      dup8\n      dup8\n      call\n      swap3\n      pop\n      pop\n      pop\n      returndatasize\n      dup1\n      0x00\n      dup2\n      eq\n      tag_11\n      jumpi\n      mload(0x40)\n      swap2\n      pop\n      and(add(returndatasize, 0x3f), not(0x1f))\n      dup3\n      add\n      0x40\n      mstore\n      returndatasize\n      dup3\n      mstore\n      returndatasize\n      0x00\n      0x20\n      dup5\n      add\n      returndatacopy\n      jump(tag_10)\n    tag_11:\n      0x60\n      swap2\n      pop\n    tag_10:\n      pop\n        /* \"forever.sol\":973:1030  (bool suc, bytes memory data) = gas.call{gas: 100000}(cd) */\n      swap2\n      pop\n      swap2\n      pop\n        /* \"forever.sol\":1044:1047  suc */\n      dup2\n        /* \"forever.sol\":1040:1097  if(!suc){... */\n      tag_12\n      jumpi\n        /* \"forever.sol\":1062:1086  revert(\"gas not enough\") */\n      mload(0x40)\n      0x08c379a000000000000000000000000000000000000000000000000000000000\n      dup2\n      mstore\n      0x04\n      add\n      tag_13\n      swap1\n      tag_14\n      jump\t// in\n    tag_13:\n      mload(0x40)\n      dup1\n      swap2\n      sub\n      swap1\n      revert\n        /* \"forever.sol\":1040:1097  if(!suc){... */\n    tag_12:\n        /* \"forever.sol\":899:1103  {... */\n      pop\n      pop\n      pop\n        /* \"forever.sol\":869:1103  function callForever() public {... */\n      jump\t// out\n        /* \"#utility.yul\":7:105   */\n    tag_15:\n        /* \"#utility.yul\":58:64   */\n      0x00\n        /* \"#utility.yul\":92:97   */\n      dup2\n        /* \"#utility.yul\":86:98   */\n      mload\n        /* \"#utility.yul\":76:98   */\n      swap1\n      pop\n        /* \"#utility.yul\":7:105   */\n      swap2\n      swap1\n      pop\n      jump\t// out\n        /* \"#utility.yul\":111:258   */\n    tag_16:\n        /* \"#utility.yul\":212:223   */\n      0x00\n        /* \"#utility.yul\":249:252   */\n      dup2\n        /* \"#utility.yul\":234:252   */\n      swap1\n      pop\n        /* \"#utility.yul\":111:258   */\n      swap3\n      swap2\n      pop\n      pop\n      jump\t// out\n        /* \"#utility.yul\":264:510   */\n    tag_17:\n        /* \"#utility.yul\":345:346   */\n      0x00\n        /* \"#utility.yul\":355:468   */\n    tag_26:\n        /* \"#utility.yul\":369:375   */\n      dup4\n        /* \"#utility.yul\":366:367   */\n      dup2\n        /* \"#utility.yul\":363:376   */\n      lt\n        /* \"#utility.yul\":355:468   */\n      iszero\n      tag_28\n      jumpi\n        /* \"#utility.yul\":454:455   */\n      dup1\n        /* \"#utility.yul\":449:452   */\n      dup3\n        /* \"#utility.yul\":445:456   */\n      add\n        /* \"#utility.yul\":439:457   */\n      mload\n        /* \"#utility.yul\":435:436   */\n      dup2\n        /* \"#utility.yul\":430:433   */\n      dup5\n        /* \"#utility.yul\":426:437   */\n      add\n        /* \"#utility.yul\":419:458   */\n      mstore\n        /* \"#utility.yul\":391:393   */\n      0x20\n        /* \"#utility.yul\":388:389   */\n      dup2\n        /* \"#utility.yul\":384:394   */\n      add\n        /* \"#utility.yul\":379:394   */\n      swap1\n      pop\n        /* \"#utility.yul\":355:468   */\n      jump(tag_26)\n    tag_28:\n        /* \"#utility.yul\":502:503   */\n      0x00\n        /* \"#utility.yul\":493:499   */\n      dup5\n        /* \"#utility.yul\":488:491   */\n      dup5\n        /* \"#utility.yul\":484:500   */\n      add\n        /* \"#utility.yul\":477:504   */\n      mstore\n        /* \"#utility.yul\":326:510   */\n      pop\n        /* \"#utility.yul\":264:510   */\n      pop\n      pop\n      pop\n      jump\t// out\n        /* \"#utility.yul\":516:902   */\n    tag_18:\n        /* \"#utility.yul\":620:623   */\n      0x00\n        /* \"#utility.yul\":648:686   */\n      tag_30\n        /* \"#utility.yul\":680:685   */\n      dup3\n        /* \"#utility.yul\":648:686   */\n      tag_15\n      jump\t// in\n    tag_30:\n        /* \"#utility.yul\":702:790   */\n      tag_31\n        /* \"#utility.yul\":783:789   */\n      dup2\n        /* \"#utility.yul\":778:781   */\n      dup6\n        /* \"#utility.yul\":702:790   */\n      tag_16\n      jump\t// in\n    tag_31:\n        /* \"#utility.yul\":695:790   */\n      swap4\n      pop\n        /* \"#utility.yul\":799:864   */\n      tag_32\n        /* \"#utility.yul\":857:863   */\n      dup2\n        /* \"#utility.yul\":852:855   */\n      dup6\n        /* \"#utility.yul\":845:849   */\n      0x20\n        /* \"#utility.yul\":838:843   */\n      dup7\n        /* \"#utility.yul\":834:850   */\n      add\n        /* \"#utility.yul\":799:864   */\n      tag_17\n      jump\t// in\n    tag_32:\n        /* \"#utility.yul\":889:895   */\n      dup1\n        /* \"#utility.yul\":884:887   */\n      dup5\n        /* \"#utility.yul\":880:896   */\n      add\n        /* \"#utility.yul\":873:896   */\n      swap2\n      pop\n        /* \"#utility.yul\":624:902   */\n      pop\n        /* \"#utility.yul\":516:902   */\n      swap3\n      swap2\n      pop\n      pop\n      jump\t// out\n        /* \"#utility.yul\":908:1179   */\n    tag_8:\n        /* \"#utility.yul\":1038:1041   */\n      0x00\n        /* \"#utility.yul\":1060:1153   */\n      tag_34\n        /* \"#utility.yul\":1149:1152   */\n      dup3\n        /* \"#utility.yul\":1140:1146   */\n      dup5\n        /* \"#utility.yul\":1060:1153   */\n      tag_18\n      jump\t// in\n    tag_34:\n        /* \"#utility.yul\":1053:1153   */\n      swap2\n      pop\n        /* \"#utility.yul\":1170:1173   */\n      dup2\n        /* \"#utility.yul\":1163:1173   */\n      swap1\n      pop\n        /* \"#utility.yul\":908:1179   */\n      swap3\n      swap2\n      pop\n      pop\n      jump\t// out\n        /* \"#utility.yul\":1185:1354   */\n    tag_19:\n        /* \"#utility.yul\":1269:1280   */\n      0x00\n        /* \"#utility.yul\":1303:1309   */\n      dup3\n        /* \"#utility.yul\":1298:1301   */\n      dup3\n        /* \"#utility.yul\":1291:1310   */\n      mstore\n        /* \"#utility.yul\":1343:1347   */\n      0x20\n        /* \"#utility.yul\":1338:1341   */\n      dup3\n        /* \"#utility.yul\":1334:1348   */\n      add\n        /* \"#utility.yul\":1319:1348   */\n      swap1\n      pop\n        /* \"#utility.yul\":1185:1354   */\n      swap3\n      swap2\n      pop\n      pop\n      jump\t// out\n        /* \"#utility.yul\":1360:1524   */\n    tag_20:\n        /* \"#utility.yul\":1500:1516   */\n      0x676173206e6f7420656e6f756768000000000000000000000000000000000000\n        /* \"#utility.yul\":1496:1497   */\n      0x00\n        /* \"#utility.yul\":1488:1494   */\n      dup3\n        /* \"#utility.yul\":1484:1498   */\n      add\n        /* \"#utility.yul\":1477:1517   */\n      mstore\n        /* \"#utility.yul\":1360:1524   */\n      pop\n      jump\t// out\n        /* \"#utility.yul\":1530:1896   */\n    tag_21:\n        /* \"#utility.yul\":1672:1675   */\n      0x00\n        /* \"#utility.yul\":1693:1760   */\n      tag_38\n        /* \"#utility.yul\":1757:1759   */\n      0x0e\n        /* \"#utility.yul\":1752:1755   */\n      dup4\n        /* \"#utility.yul\":1693:1760   */\n      tag_19\n      jump\t// in\n    tag_38:\n        /* \"#utility.yul\":1686:1760   */\n      swap2\n      pop\n        /* \"#utility.yul\":1769:1862   */\n      tag_39\n        /* \"#utility.yul\":1858:1861   */\n      dup3\n        /* \"#utility.yul\":1769:1862   */\n      tag_20\n      jump\t// in\n    tag_39:\n        /* \"#utility.yul\":1887:1889   */\n      0x20\n        /* \"#utility.yul\":1882:1885   */\n      dup3\n        /* \"#utility.yul\":1878:1890   */\n      add\n        /* \"#utility.yul\":1871:1890   */\n      swap1\n      pop\n        /* \"#utility.yul\":1530:1896   */\n      swap2\n      swap1\n      pop\n      jump\t// out\n        /* \"#utility.yul\":1902:2321   */\n    tag_14:\n        /* \"#utility.yul\":2068:2072   */\n      0x00\n        /* \"#utility.yul\":2106:2108   */\n      0x20\n        /* \"#utility.yul\":2095:2104   */\n      dup3\n        /* \"#utility.yul\":2091:2109   */\n      add\n        /* \"#utility.yul\":2083:2109   */\n      swap1\n      pop\n        /* \"#utility.yul\":2155:2164   */\n      dup2\n        /* \"#utility.yul\":2149:2153   */\n      dup2\n        /* \"#utility.yul\":2145:2165   */\n      sub\n        /* \"#utility.yul\":2141:2142   */\n      0x00\n        /* \"#utility.yul\":2130:2139   */\n      dup4\n        /* \"#utility.yul\":2126:2143   */\n      add\n        /* \"#utility.yul\":2119:2166   */\n      mstore\n        /* \"#utility.yul\":2183:2314   */\n      tag_41\n        /* \"#utility.yul\":2309:2313   */\n      dup2\n        /* \"#utility.yul\":2183:2314   */\n      tag_21\n      jump\t// in\n    tag_41:\n        /* \"#utility.yul\":2175:2314   */\n      swap1\n      pop\n        /* \"#utility.yul\":1902:2321   */\n      swap2\n      swap1\n      pop\n      jump\t// out\n\n    auxdata: 0xa2646970667358221220d3ebb0d4753618fca5aaa5a5af3bbefb8842a494272b3db8c136342f14db8a7264736f6c63430008110033\n}\n",
				"bytecode": {
					"linkReferences": {},
					"object": "608060405234801561001057600080fd5b506040516103ec3803806103ec833981810160405281019061003291906100db565b806000806101000a81548173ffffffffffffffffffffffffffffffffffffffff021916908373ffffffffffffffffffffffffffffffffffffffff16021790555050610108565b600080fd5b600073ffffffffffffffffffffffffffffffffffffffff82169050919050565b60006100a88261007d565b9050919050565b6100b88161009d565b81146100c357600080fd5b50565b6000815190506100d5816100af565b92915050565b6000602082840312156100f1576100f0610078565b5b60006100ff848285016100c6565b91505092915050565b6102d5806101176000396000f3fe608060405234801561001057600080fd5b506004361061002b5760003560e01c8063c6a4853514610030575b600080fd5b61003861003a565b005b60006040516024016040516020818303038152906040527f9ff9a603000000000000000000000000000000000000000000000000000000007bffffffffffffffffffffffffffffffffffffffffffffffffffffffff19166020820180517bffffffffffffffffffffffffffffffffffffffffffffffffffffffff8381831617835250505050905060008060008054906101000a900473ffffffffffffffffffffffffffffffffffffffff1673ffffffffffffffffffffffffffffffffffffffff16620186a08460405161010d919061020b565b60006040518083038160008787f1925050503d806000811461014b576040519150601f19603f3d011682016040523d82523d6000602084013e610150565b606091505b509150915081610195576040517f08c379a000000000000000000000000000000000000000000000000000000000815260040161018c9061027f565b60405180910390fd5b505050565b600081519050919050565b600081905092915050565b60005b838110156101ce5780820151818401526020810190506101b3565b60008484015250505050565b60006101e58261019a565b6101ef81856101a5565b93506101ff8185602086016101b0565b80840191505092915050565b600061021782846101da565b915081905092915050565b600082825260208201905092915050565b7f676173206e6f7420656e6f756768000000000000000000000000000000000000600082015250565b6000610269600e83610222565b915061027482610233565b602082019050919050565b600060208201905081810360008301526102988161025c565b905091905056fea2646970667358221220d3ebb0d4753618fca5aaa5a5af3bbefb8842a494272b3db8c136342f14db8a7264736f6c63430008110033",
					"opcodes": "PUSH1 0x80 PUSH1 0x40 MSTORE CALLVALUE DUP1 ISZERO PUSH2 0x10 JUMPI PUSH1 0x0 DUP1 REVERT JUMPDEST POP PUSH1 0x40 MLOAD PUSH2 0x3EC CODESIZE SUB DUP1 PUSH2 0x3EC DUP4 CODECOPY DUP2 DUP2 ADD PUSH1 0x40 MSTORE DUP2 ADD SWAP1 PUSH2 0x32 SWAP2 SWAP1 PUSH2 0xDB JUMP JUMPDEST DUP1 PUSH1 0x0 DUP1 PUSH2 0x100 EXP DUP2 SLOAD DUP2 PUSH20 0xFFFFFFFFFFFFFFFFFFFFFFFFFFFFFFFFFFFFFFFF MUL NOT AND SWAP1 DUP4 PUSH20 0xFFFFFFFFFFFFFFFFFFFFFFFFFFFFFFFFFFFFFFFF AND MUL OR SWAP1 SSTORE POP POP PUSH2 0x108 JUMP JUMPDEST PUSH1 0x0 DUP1 REVERT JUMPDEST PUSH1 0x0 PUSH20 0xFFFFFFFFFFFFFFFFFFFFFFFFFFFFFFFFFFFFFFFF DUP3 AND SWAP1 POP SWAP2 SWAP1 POP JUMP JUMPDEST PUSH1 0x0 PUSH2 0xA8 DUP3 PUSH2 0x7D JUMP JUMPDEST SWAP1 POP SWAP2 SWAP1 POP JUMP JUMPDEST PUSH2 0xB8 DUP2 PUSH2 0x9D JUMP JUMPDEST DUP2 EQ PUSH2 0xC3 JUMPI PUSH1 0x0 DUP1 REVERT JUMPDEST POP JUMP JUMPDEST PUSH1 0x0 DUP2 MLOAD SWAP1 POP PUSH2 0xD5 DUP2 PUSH2 0xAF JUMP JUMPDEST SWAP3 SWAP2 POP POP JUMP JUMPDEST PUSH1 0x0 PUSH1 0x20 DUP3 DUP5 SUB SLT ISZERO PUSH2 0xF1 JUMPI PUSH2 0xF0 PUSH2 0x78 JUMP JUMPDEST JUMPDEST PUSH1 0x0 PUSH2 0xFF DUP5 DUP3 DUP6 ADD PUSH2 0xC6 JUMP JUMPDEST SWAP2 POP POP SWAP3 SWAP2 POP POP JUMP JUMPDEST PUSH2 0x2D5 DUP1 PUSH2 0x117 PUSH1 0x0 CODECOPY PUSH1 0x0 RETURN INVALID PUSH1 0x80 PUSH1 0x40 MSTORE CALLVALUE DUP1 ISZERO PUSH2 0x10 JUMPI PUSH1 0x0 DUP1 REVERT JUMPDEST POP PUSH1 0x4 CALLDATASIZE LT PUSH2 0x2B JUMPI PUSH1 0x0 CALLDATALOAD PUSH1 0xE0 SHR DUP1 PUSH4 0xC6A48535 EQ PUSH2 0x30 JUMPI JUMPDEST PUSH1 0x0 DUP1 REVERT JUMPDEST PUSH2 0x38 PUSH2 0x3A JUMP JUMPDEST STOP JUMPDEST PUSH1 0x0 PUSH1 0x40 MLOAD PUSH1 0x24 ADD PUSH1 0x40 MLOAD PUSH1 0x20 DUP2 DUP4 SUB SUB DUP2 MSTORE SWAP1 PUSH1 0x40 MSTORE PUSH32 0x9FF9A60300000000000000000000000000000000000000000000000000000000 PUSH28 0xFFFFFFFFFFFFFFFFFFFFFFFFFFFFFFFFFFFFFFFFFFFFFFFFFFFFFFFF NOT AND PUSH1 0x20 DUP3 ADD DUP1 MLOAD PUSH28 0xFFFFFFFFFFFFFFFFFFFFFFFFFFFFFFFFFFFFFFFFFFFFFFFFFFFFFFFF DUP4 DUP2 DUP4 AND OR DUP4 MSTORE POP POP POP POP SWAP1 POP PUSH1 0x0 DUP1 PUSH1 0x0 DUP1 SLOAD SWAP1 PUSH2 0x100 EXP SWAP1 DIV PUSH20 0xFFFFFFFFFFFFFFFFFFFFFFFFFFFFFFFFFFFFFFFF AND PUSH20 0xFFFFFFFFFFFFFFFFFFFFFFFFFFFFFFFFFFFFFFFF AND PUSH3 0x186A0 DUP5 PUSH1 0x40 MLOAD PUSH2 0x10D SWAP2 SWAP1 PUSH2 0x20B JUMP JUMPDEST PUSH1 0x0 PUSH1 0x40 MLOAD DUP1 DUP4 SUB DUP2 PUSH1 0x0 DUP8 DUP8 CALL SWAP3 POP POP POP RETURNDATASIZE DUP1 PUSH1 0x0 DUP2 EQ PUSH2 0x14B JUMPI PUSH1 0x40 MLOAD SWAP2 POP PUSH1 0x1F NOT PUSH1 0x3F RETURNDATASIZE ADD AND DUP3 ADD PUSH1 0x40 MSTORE RETURNDATASIZE DUP3 MSTORE RETURNDATASIZE PUSH1 0x0 PUSH1 0x20 DUP5 ADD RETURNDATACOPY PUSH2 0x150 JUMP JUMPDEST PUSH1 0x60 SWAP2 POP JUMPDEST POP SWAP2 POP SWAP2 POP DUP2 PUSH2 0x195 JUMPI PUSH1 0x40 MLOAD PUSH32 0x8C379A000000000000000000000000000000000000000000000000000000000 DUP2 MSTORE PUSH1 0x4 ADD PUSH2 0x18C SWAP1 PUSH2 0x27F JUMP JUMPDEST PUSH1 0x40 MLOAD DUP1 SWAP2 SUB SWAP1 REVERT JUMPDEST POP POP POP JUMP JUMPDEST PUSH1 0x0 DUP2 MLOAD SWAP1 POP SWAP2 SWAP1 POP JUMP JUMPDEST PUSH1 0x0 DUP2 SWAP1 POP SWAP3 SWAP2 POP POP JUMP JUMPDEST PUSH1 0x0 JUMPDEST DUP4 DUP2 LT ISZERO PUSH2 0x1CE JUMPI DUP1 DUP3 ADD MLOAD DUP2 DUP5 ADD MSTORE PUSH1 0x20 DUP2 ADD SWAP1 POP PUSH2 0x1B3 JUMP JUMPDEST PUSH1 0x0 DUP5 DUP5 ADD MSTORE POP POP POP POP JUMP JUMPDEST PUSH1 0x0 PUSH2 0x1E5 DUP3 PUSH2 0x19A JUMP JUMPDEST PUSH2 0x1EF DUP2 DUP6 PUSH2 0x1A5 JUMP JUMPDEST SWAP4 POP PUSH2 0x1FF DUP2 DUP6 PUSH1 0x20 DUP7 ADD PUSH2 0x1B0 JUMP JUMPDEST DUP1 DUP5 ADD SWAP2 POP POP SWAP3 SWAP2 POP POP JUMP JUMPDEST PUSH1 0x0 PUSH2 0x217 DUP3 DUP5 PUSH2 0x1DA JUMP JUMPDEST SWAP2 POP DUP2 SWAP1 POP SWAP3 SWAP2 POP POP JUMP JUMPDEST PUSH1 0x0 DUP3 DUP3 MSTORE PUSH1 0x20 DUP3 ADD SWAP1 POP SWAP3 SWAP2 POP POP JUMP JUMPDEST PUSH32 0x676173206E6F7420656E6F756768000000000000000000000000000000000000 PUSH1 0x0 DUP3 ADD MSTORE POP JUMP JUMPDEST PUSH1 0x0 PUSH2 0x269 PUSH1 0xE DUP4 PUSH2 0x222 JUMP JUMPDEST SWAP2 POP PUSH2 0x274 DUP3 PUSH2 0x233 JUMP JUMPDEST PUSH1 0x20 DUP3 ADD SWAP1 POP SWAP2 SWAP1 POP JUMP JUMPDEST PUSH1 0x0 PUSH1 0x20 DUP3 ADD SWAP1 POP DUP2 DUP2 SUB PUSH1 0x0 DUP4 ADD MSTORE PUSH2 0x298 DUP2 PUSH2 0x25C JUMP JUMPDEST SWAP1 POP SWAP2 SWAP1 POP JUMP INVALID LOG2 PUSH5 0x6970667358 0x22 SLT KECCAK256 0xD3 0xEB 0xB0 0xD4 PUSH22 0x3618FCA5AAA5A5AF3BBEFB8842A494272B3DB8C13634 0x2F EQ 0xDB DUP11 PUSH19 0x64736F6C634300081100330000000000000000 "
				},
				"gasEstimates": {
					"creation": {
						"codeDepositCost": "145000",
						"executionCost": "infinite",
						"totalCost": "infinite"
					},
					"external": {
						"callForever()": "infinite"
					}
				},
				"methodIdentifiers": {
					"callForever()": "c6a48535"
				}
			},
			"storageLayout": {
				"storage": [
					{
						"astId": 34,
						"contract": "forever.sol:GasCaller",
						"label": "gas",
						"offset": 0,
						"slot": "0",
						"type": "t_address"
					}
				],
				"types": {
					"t_address": {
						"encoding": "inplace",
						"label": "address",
						"numberOfBytes": "20"
					}
				}
			},
			"userdoc": {
				"kind": "user",
				"methods": {},
				"version": 1
			}
		}
	}
}