{
	"SendingEther.sol": {
		"SendEther": {
			"abi": [
				{
					"inputs": [],
					"name": "deposit",
					"outputs": [],
					"stateMutability": "payable",
					"type": "function"
				},
				{
					"inputs": [
						{
							"internalType": "address",
							"name": "to",
							"type": "address"
						},
						{
							"internalType": "uint256",
							"name": "amount",
							"type": "uint256"
						}
					],
					"name": "mysend",
					"outputs": [
						{
							"internalType": "bool",
							"name": "",
							"type": "bool"
						}
					],
					"stateMutability": "nonpayable",
					"type": "function"
				},
				{
					"inputs": [
						{
							"internalType": "address",
							"name": "to",
							"type": "address"
						},
						{
							"internalType": "uint256",
							"name": "amount",
							"type": "uint256"
						}
					],
					"name": "mytransfer",
					"outputs": [
						{
							"internalType": "bool",
							"name": "",
							"type": "bool"
						}
					],
					"stateMutability": "nonpayable",
					"type": "function"
				},
				{
					"inputs": [],
					"name": "received",
					"outputs": [
						{
							"internalType": "uint256",
							"name": "",
							"type": "uint256"
						}
					],
					"stateMutability": "view",
					"type": "function"
				},
				{
					"inputs": [
						{
							"internalType": "address payable",
							"name": "_to",
							"type": "address"
						},
						{
							"internalType": "uint256",
							"name": "amount",
							"type": "uint256"
						}
					],
					"name": "sendTo",
					"outputs": [],
					"stateMutability": "nonpayable",
					"type": "function"
				},
				{
					"inputs": [
						{
							"internalType": "address",
							"name": "_to",
							"type": "address"
						}
					],
					"name": "sendViaCall",
					"outputs": [],
					"stateMutability": "payable",
					"type": "function"
				},
				{
					"inputs": [
						{
							"internalType": "address payable",
							"name": "_to",
							"type": "address"
						}
					],
					"name": "sendViaSend",
					"outputs": [],
					"stateMutability": "payable",
					"type": "function"
				},
				{
					"inputs": [
						{
							"internalType": "address payable",
							"name": "_to",
							"type": "address"
						}
					],
					"name": "sendViaTransfer",
					"outputs": [],
					"stateMutability": "payable",
					"type": "function"
				}
			],
			"devdoc": {
				"kind": "dev",
				"methods": {},
				"version": 1
			},
			"evm": {
				"assembly": "    /* \"SendingEther.sol\":443:1597  contract SendEther {... */\n  mstore(0x40, 0x80)\n  callvalue\n  dup1\n  iszero\n  tag_1\n  jumpi\n  0x00\n  dup1\n  revert\ntag_1:\n  pop\n  dataSize(sub_0)\n  dup1\n  dataOffset(sub_0)\n  0x00\n  codecopy\n  0x00\n  return\nstop\n\nsub_0: assembly {\n        /* \"SendingEther.sol\":443:1597  contract SendEther {... */\n      mstore(0x40, 0x80)\n      jumpi(tag_1, lt(calldatasize, 0x04))\n      shr(0xe0, calldataload(0x00))\n      dup1\n      0x83a6deb5\n      gt\n      tag_10\n      jumpi\n      dup1\n      0x83a6deb5\n      eq\n      tag_6\n      jumpi\n      dup1\n      0x9e1a00aa\n      eq\n      tag_7\n      jumpi\n      dup1\n      0xa1712ece\n      eq\n      tag_8\n      jumpi\n      dup1\n      0xd0e30db0\n      eq\n      tag_9\n      jumpi\n      jump(tag_1)\n    tag_10:\n      dup1\n      0x1cc09c9a\n      eq\n      tag_2\n      jumpi\n      dup1\n      0x636e082b\n      eq\n      tag_3\n      jumpi\n      dup1\n      0x74be4806\n      eq\n      tag_4\n      jumpi\n      dup1\n      0x830c29ae\n      eq\n      tag_5\n      jumpi\n    tag_1:\n      0x00\n      dup1\n      revert\n        /* \"SendingEther.sol\":1396:1594  function mytransfer(address to, uint amount)public returns(bool){... */\n    tag_2:\n      callvalue\n      dup1\n      iszero\n      tag_11\n      jumpi\n      0x00\n      dup1\n      revert\n    tag_11:\n      pop\n      tag_12\n      0x04\n      dup1\n      calldatasize\n      sub\n      dup2\n      add\n      swap1\n      tag_13\n      swap2\n      swap1\n      tag_14\n      jump\t// in\n    tag_13:\n      tag_15\n      jump\t// in\n    tag_12:\n      mload(0x40)\n      tag_16\n      swap2\n      swap1\n      tag_17\n      jump\t// in\n    tag_16:\n      mload(0x40)\n      dup1\n      swap2\n      sub\n      swap1\n      return\n        /* \"SendingEther.sol\":468:569  function sendViaTransfer(address payable _to) public payable {... */\n    tag_3:\n      tag_18\n      0x04\n      dup1\n      calldatasize\n      sub\n      dup2\n      add\n      swap1\n      tag_19\n      swap2\n      swap1\n      tag_20\n      jump\t// in\n    tag_19:\n      tag_21\n      jump\t// in\n    tag_18:\n      stop\n        /* \"SendingEther.sol\":575:728  function sendViaSend(address payable _to) public payable {... */\n    tag_4:\n      tag_22\n      0x04\n      dup1\n      calldatasize\n      sub\n      dup2\n      add\n      swap1\n      tag_23\n      swap2\n      swap1\n      tag_20\n      jump\t// in\n    tag_23:\n      tag_24\n      jump\t// in\n    tag_22:\n      stop\n        /* \"SendingEther.sol\":734:920  function sendViaCall(address  _to) public payable {... */\n    tag_5:\n      tag_25\n      0x04\n      dup1\n      calldatasize\n      sub\n      dup2\n      add\n      swap1\n      tag_26\n      swap2\n      swap1\n      tag_27\n      jump\t// in\n    tag_26:\n      tag_28\n      jump\t// in\n    tag_25:\n      stop\n        /* \"SendingEther.sol\":925:945  uint public received */\n    tag_6:\n      callvalue\n      dup1\n      iszero\n      tag_29\n      jumpi\n      0x00\n      dup1\n      revert\n    tag_29:\n      pop\n      tag_30\n      tag_31\n      jump\t// in\n    tag_30:\n      mload(0x40)\n      tag_32\n      swap2\n      swap1\n      tag_33\n      jump\t// in\n    tag_32:\n      mload(0x40)\n      dup1\n      swap2\n      sub\n      swap1\n      return\n        /* \"SendingEther.sol\":1028:1218  function sendTo(address payable _to,uint amount) public  {... */\n    tag_7:\n      callvalue\n      dup1\n      iszero\n      tag_34\n      jumpi\n      0x00\n      dup1\n      revert\n    tag_34:\n      pop\n      tag_35\n      0x04\n      dup1\n      calldatasize\n      sub\n      dup2\n      add\n      swap1\n      tag_36\n      swap2\n      swap1\n      tag_37\n      jump\t// in\n    tag_36:\n      tag_38\n      jump\t// in\n    tag_35:\n      stop\n        /* \"SendingEther.sol\":1224:1393  function mysend(address to, uint amount)public returns(bool){... */\n    tag_8:\n      callvalue\n      dup1\n      iszero\n      tag_39\n      jumpi\n      0x00\n      dup1\n      revert\n    tag_39:\n      pop\n      tag_40\n      0x04\n      dup1\n      calldatasize\n      sub\n      dup2\n      add\n      swap1\n      tag_41\n      swap2\n      swap1\n      tag_14\n      jump\t// in\n    tag_41:\n      tag_42\n      jump\t// in\n    tag_40:\n      mload(0x40)\n      tag_43\n      swap2\n      swap1\n      tag_17\n      jump\t// in\n    tag_43:\n      mload(0x40)\n      dup1\n      swap2\n      sub\n      swap1\n      return\n        /* \"SendingEther.sol\":951:1022  function deposit()public payable{... */\n    tag_9:\n      tag_44\n      tag_45\n      jump\t// in\n    tag_44:\n      stop\n        /* \"SendingEther.sol\":1396:1594  function mytransfer(address to, uint amount)public returns(bool){... */\n    tag_15:\n        /* \"SendingEther.sol\":1455:1459  bool */\n      0x00\n        /* \"SendingEther.sol\":1471:1480  bool sent */\n      dup1\n        /* \"SendingEther.sol\":1482:1499  bytes memory data */\n      0x00\n        /* \"SendingEther.sol\":1503:1505  to */\n      dup5\n        /* \"SendingEther.sol\":1503:1510  to.call */\n      0xffffffffffffffffffffffffffffffffffffffff\n      and\n        /* \"SendingEther.sol\":1516:1520  2300 */\n      0x08fc\n        /* \"SendingEther.sol\":1529:1535  amount */\n      dup6\n        /* \"SendingEther.sol\":1503:1540  to.call{gas: 2300, value: amount}(\"\") */\n      mload(0x40)\n      tag_47\n      swap1\n      tag_48\n      jump\t// in\n    tag_47:\n      0x00\n      mload(0x40)\n      dup1\n      dup4\n      sub\n      dup2\n      dup6\n      dup9\n      dup9\n      call\n      swap4\n      pop\n      pop\n      pop\n      pop\n      returndatasize\n      dup1\n      0x00\n      dup2\n      eq\n      tag_51\n      jumpi\n      mload(0x40)\n      swap2\n      pop\n      and(add(returndatasize, 0x3f), not(0x1f))\n      dup3\n      add\n      0x40\n      mstore\n      returndatasize\n      dup3\n      mstore\n      returndatasize\n      0x00\n      0x20\n      dup5\n      add\n      returndatacopy\n      jump(tag_50)\n    tag_51:\n      0x60\n      swap2\n      pop\n    tag_50:\n      pop\n        /* \"SendingEther.sol\":1470:1540  (bool sent, bytes memory data) = to.call{gas: 2300, value: amount}(\"\") */\n      swap2\n      pop\n      swap2\n      pop\n        /* \"SendingEther.sol\":1558:1562  sent */\n      dup2\n        /* \"SendingEther.sol\":1550:1587  require(sent, \"Failed to send Ether\") */\n      tag_52\n      jumpi\n      mload(0x40)\n      0x08c379a000000000000000000000000000000000000000000000000000000000\n      dup2\n      mstore\n      0x04\n      add\n      tag_53\n      swap1\n      tag_54\n      jump\t// in\n    tag_53:\n      mload(0x40)\n      dup1\n      swap2\n      sub\n      swap1\n      revert\n    tag_52:\n        /* \"SendingEther.sol\":1460:1594  {... */\n      pop\n      pop\n        /* \"SendingEther.sol\":1396:1594  function mytransfer(address to, uint amount)public returns(bool){... */\n      swap3\n      swap2\n      pop\n      pop\n      jump\t// out\n        /* \"SendingEther.sol\":468:569  function sendViaTransfer(address payable _to) public payable {... */\n    tag_21:\n        /* \"SendingEther.sol\":539:542  _to */\n      dup1\n        /* \"SendingEther.sol\":539:551  _to.transfer */\n      0xffffffffffffffffffffffffffffffffffffffff\n      and\n        /* \"SendingEther.sol\":539:562  _to.transfer(msg.value) */\n      0x08fc\n        /* \"SendingEther.sol\":552:561  msg.value */\n      callvalue\n        /* \"SendingEther.sol\":539:562  _to.transfer(msg.value) */\n      swap1\n      dup2\n      iszero\n      mul\n      swap1\n      mload(0x40)\n      0x00\n      mload(0x40)\n      dup1\n      dup4\n      sub\n      dup2\n      dup6\n      dup9\n      dup9\n      call\n      swap4\n      pop\n      pop\n      pop\n      pop\n      iszero\n      dup1\n      iszero\n      tag_57\n      jumpi\n      returndatasize\n      0x00\n      dup1\n      returndatacopy\n      revert(0x00, returndatasize)\n    tag_57:\n      pop\n        /* \"SendingEther.sol\":468:569  function sendViaTransfer(address payable _to) public payable {... */\n      pop\n      jump\t// out\n        /* \"SendingEther.sol\":575:728  function sendViaSend(address payable _to) public payable {... */\n    tag_24:\n        /* \"SendingEther.sol\":643:652  bool sent */\n      0x00\n        /* \"SendingEther.sol\":655:658  _to */\n      dup2\n        /* \"SendingEther.sol\":655:663  _to.send */\n      0xffffffffffffffffffffffffffffffffffffffff\n      and\n        /* \"SendingEther.sol\":655:674  _to.send(msg.value) */\n      0x08fc\n        /* \"SendingEther.sol\":664:673  msg.value */\n      callvalue\n        /* \"SendingEther.sol\":655:674  _to.send(msg.value) */\n      swap1\n      dup2\n      iszero\n      mul\n      swap1\n      mload(0x40)\n      0x00\n      mload(0x40)\n      dup1\n      dup4\n      sub\n      dup2\n      dup6\n      dup9\n      dup9\n      call\n      swap4\n      pop\n      pop\n      pop\n      pop\n        /* \"SendingEther.sol\":643:674  bool sent = _to.send(msg.value) */\n      swap1\n      pop\n        /* \"SendingEther.sol\":692:696  sent */\n      dup1\n        /* \"SendingEther.sol\":684:721  require(sent, \"Failed to send Ether\") */\n      tag_60\n      jumpi\n      mload(0x40)\n      0x08c379a000000000000000000000000000000000000000000000000000000000\n      dup2\n      mstore\n      0x04\n      add\n      tag_61\n      swap1\n      tag_54\n      jump\t// in\n    tag_61:\n      mload(0x40)\n      dup1\n      swap2\n      sub\n      swap1\n      revert\n    tag_60:\n        /* \"SendingEther.sol\":632:728  {... */\n      pop\n        /* \"SendingEther.sol\":575:728  function sendViaSend(address payable _to) public payable {... */\n      pop\n      jump\t// out\n        /* \"SendingEther.sol\":734:920  function sendViaCall(address  _to) public payable {... */\n    tag_28:\n        /* \"SendingEther.sol\":804:813  bool sent */\n      0x00\n        /* \"SendingEther.sol\":815:832  bytes memory data */\n      dup1\n        /* \"SendingEther.sol\":836:839  _to */\n      dup3\n        /* \"SendingEther.sol\":836:844  _to.call */\n      0xffffffffffffffffffffffffffffffffffffffff\n      and\n        /* \"SendingEther.sol\":852:861  msg.value */\n      callvalue\n        /* \"SendingEther.sol\":836:866  _to.call{value: msg.value}(\"\") */\n      mload(0x40)\n      tag_63\n      swap1\n      tag_48\n      jump\t// in\n    tag_63:\n      0x00\n      mload(0x40)\n      dup1\n      dup4\n      sub\n      dup2\n      dup6\n      dup8\n      gas\n      call\n      swap3\n      pop\n      pop\n      pop\n      returndatasize\n      dup1\n      0x00\n      dup2\n      eq\n      tag_66\n      jumpi\n      mload(0x40)\n      swap2\n      pop\n      and(add(returndatasize, 0x3f), not(0x1f))\n      dup3\n      add\n      0x40\n      mstore\n      returndatasize\n      dup3\n      mstore\n      returndatasize\n      0x00\n      0x20\n      dup5\n      add\n      returndatacopy\n      jump(tag_65)\n    tag_66:\n      0x60\n      swap2\n      pop\n    tag_65:\n      pop\n        /* \"SendingEther.sol\":803:866  (bool sent, bytes memory data) = _to.call{value: msg.value}(\"\") */\n      swap2\n      pop\n      swap2\n      pop\n        /* \"SendingEther.sol\":884:888  sent */\n      dup2\n        /* \"SendingEther.sol\":876:913  require(sent, \"Failed to send Ether\") */\n      tag_67\n      jumpi\n      mload(0x40)\n      0x08c379a000000000000000000000000000000000000000000000000000000000\n      dup2\n      mstore\n      0x04\n      add\n      tag_68\n      swap1\n      tag_54\n      jump\t// in\n    tag_68:\n      mload(0x40)\n      dup1\n      swap2\n      sub\n      swap1\n      revert\n    tag_67:\n        /* \"SendingEther.sol\":784:920  {... */\n      pop\n      pop\n        /* \"SendingEther.sol\":734:920  function sendViaCall(address  _to) public payable {... */\n      pop\n      jump\t// out\n        /* \"SendingEther.sol\":925:945  uint public received */\n    tag_31:\n      sload(0x00)\n      dup2\n      jump\t// out\n        /* \"SendingEther.sol\":1028:1218  function sendTo(address payable _to,uint amount) public  {... */\n    tag_38:\n        /* \"SendingEther.sol\":1105:1114  bool sent */\n      0x00\n        /* \"SendingEther.sol\":1116:1133  bytes memory data */\n      dup1\n        /* \"SendingEther.sol\":1137:1140  _to */\n      dup4\n        /* \"SendingEther.sol\":1137:1145  _to.call */\n      0xffffffffffffffffffffffffffffffffffffffff\n      and\n        /* \"SendingEther.sol\":1153:1159  amount */\n      dup4\n        /* \"SendingEther.sol\":1137:1164  _to.call{value: amount}(\"\") */\n      mload(0x40)\n      tag_70\n      swap1\n      tag_48\n      jump\t// in\n    tag_70:\n      0x00\n      mload(0x40)\n      dup1\n      dup4\n      sub\n      dup2\n      dup6\n      dup8\n      gas\n      call\n      swap3\n      pop\n      pop\n      pop\n      returndatasize\n      dup1\n      0x00\n      dup2\n      eq\n      tag_73\n      jumpi\n      mload(0x40)\n      swap2\n      pop\n      and(add(returndatasize, 0x3f), not(0x1f))\n      dup3\n      add\n      0x40\n      mstore\n      returndatasize\n      dup3\n      mstore\n      returndatasize\n      0x00\n      0x20\n      dup5\n      add\n      returndatacopy\n      jump(tag_72)\n    tag_73:\n      0x60\n      swap2\n      pop\n    tag_72:\n      pop\n        /* \"SendingEther.sol\":1104:1164  (bool sent, bytes memory data) = _to.call{value: amount}(\"\") */\n      swap2\n      pop\n      swap2\n      pop\n        /* \"SendingEther.sol\":1182:1186  sent */\n      dup2\n        /* \"SendingEther.sol\":1174:1211  require(sent, \"Failed to send Ether\") */\n      tag_74\n      jumpi\n      mload(0x40)\n      0x08c379a000000000000000000000000000000000000000000000000000000000\n      dup2\n      mstore\n      0x04\n      add\n      tag_75\n      swap1\n      tag_54\n      jump\t// in\n    tag_75:\n      mload(0x40)\n      dup1\n      swap2\n      sub\n      swap1\n      revert\n    tag_74:\n        /* \"SendingEther.sol\":1085:1218  {... */\n      pop\n      pop\n        /* \"SendingEther.sol\":1028:1218  function sendTo(address payable _to,uint amount) public  {... */\n      pop\n      pop\n      jump\t// out\n        /* \"SendingEther.sol\":1224:1393  function mysend(address to, uint amount)public returns(bool){... */\n    tag_42:\n        /* \"SendingEther.sol\":1279:1283  bool */\n      0x00\n        /* \"SendingEther.sol\":1295:1304  bool sent */\n      dup1\n        /* \"SendingEther.sol\":1306:1323  bytes memory data */\n      0x00\n        /* \"SendingEther.sol\":1327:1329  to */\n      dup5\n        /* \"SendingEther.sol\":1327:1334  to.call */\n      0xffffffffffffffffffffffffffffffffffffffff\n      and\n        /* \"SendingEther.sol\":1340:1344  2300 */\n      0x08fc\n        /* \"SendingEther.sol\":1353:1359  amount */\n      dup6\n        /* \"SendingEther.sol\":1327:1364  to.call{gas: 2300, value: amount}(\"\") */\n      mload(0x40)\n      tag_77\n      swap1\n      tag_48\n      jump\t// in\n    tag_77:\n      0x00\n      mload(0x40)\n      dup1\n      dup4\n      sub\n      dup2\n      dup6\n      dup9\n      dup9\n      call\n      swap4\n      pop\n      pop\n      pop\n      pop\n      returndatasize\n      dup1\n      0x00\n      dup2\n      eq\n      tag_80\n      jumpi\n      mload(0x40)\n      swap2\n      pop\n      and(add(returndatasize, 0x3f), not(0x1f))\n      dup3\n      add\n      0x40\n      mstore\n      returndatasize\n      dup3\n      mstore\n      returndatasize\n      0x00\n      0x20\n      dup5\n      add\n      returndatacopy\n      jump(tag_79)\n    tag_80:\n      0x60\n      swap2\n      pop\n    tag_79:\n      pop\n        /* \"SendingEther.sol\":1294:1364  (bool sent, bytes memory data) = to.call{gas: 2300, value: amount}(\"\") */\n      swap2\n      pop\n      swap2\n      pop\n        /* \"SendingEther.sol\":1382:1386  sent */\n      dup2\n        /* \"SendingEther.sol\":1374:1386  return  sent */\n      swap3\n      pop\n      pop\n      pop\n        /* \"SendingEther.sol\":1224:1393  function mysend(address to, uint amount)public returns(bool){... */\n      swap3\n      swap2\n      pop\n      pop\n      jump\t// out\n        /* \"SendingEther.sol\":951:1022  function deposit()public payable{... */\n    tag_45:\n        /* \"SendingEther.sol\":1005:1014  msg.value */\n      callvalue\n        /* \"SendingEther.sol\":993:1001  received */\n      0x00\n      dup1\n        /* \"SendingEther.sol\":993:1014  received += msg.value */\n      dup3\n      dup3\n      sload\n      tag_82\n      swap2\n      swap1\n      tag_83\n      jump\t// in\n    tag_82:\n      swap3\n      pop\n      pop\n      dup2\n      swap1\n      sstore\n      pop\n        /* \"SendingEther.sol\":951:1022  function deposit()public payable{... */\n      jump\t// out\n        /* \"#utility.yul\":88:205   */\n    tag_85:\n        /* \"#utility.yul\":197:198   */\n      0x00\n        /* \"#utility.yul\":194:195   */\n      dup1\n        /* \"#utility.yul\":187:199   */\n      revert\n        /* \"#utility.yul\":334:460   */\n    tag_87:\n        /* \"#utility.yul\":371:378   */\n      0x00\n        /* \"#utility.yul\":411:453   */\n      0xffffffffffffffffffffffffffffffffffffffff\n        /* \"#utility.yul\":404:409   */\n      dup3\n        /* \"#utility.yul\":400:454   */\n      and\n        /* \"#utility.yul\":389:454   */\n      swap1\n      pop\n        /* \"#utility.yul\":334:460   */\n      swap2\n      swap1\n      pop\n      jump\t// out\n        /* \"#utility.yul\":466:562   */\n    tag_88:\n        /* \"#utility.yul\":503:510   */\n      0x00\n        /* \"#utility.yul\":532:556   */\n      tag_113\n        /* \"#utility.yul\":550:555   */\n      dup3\n        /* \"#utility.yul\":532:556   */\n      tag_87\n      jump\t// in\n    tag_113:\n        /* \"#utility.yul\":521:556   */\n      swap1\n      pop\n        /* \"#utility.yul\":466:562   */\n      swap2\n      swap1\n      pop\n      jump\t// out\n        /* \"#utility.yul\":568:690   */\n    tag_89:\n        /* \"#utility.yul\":641:665   */\n      tag_115\n        /* \"#utility.yul\":659:664   */\n      dup2\n        /* \"#utility.yul\":641:665   */\n      tag_88\n      jump\t// in\n    tag_115:\n        /* \"#utility.yul\":634:639   */\n      dup2\n        /* \"#utility.yul\":631:666   */\n      eq\n        /* \"#utility.yul\":621:684   */\n      tag_116\n      jumpi\n        /* \"#utility.yul\":680:681   */\n      0x00\n        /* \"#utility.yul\":677:678   */\n      dup1\n        /* \"#utility.yul\":670:682   */\n      revert\n        /* \"#utility.yul\":621:684   */\n    tag_116:\n        /* \"#utility.yul\":568:690   */\n      pop\n      jump\t// out\n        /* \"#utility.yul\":696:835   */\n    tag_90:\n        /* \"#utility.yul\":742:747   */\n      0x00\n        /* \"#utility.yul\":780:786   */\n      dup2\n        /* \"#utility.yul\":767:787   */\n      calldataload\n        /* \"#utility.yul\":758:787   */\n      swap1\n      pop\n        /* \"#utility.yul\":796:829   */\n      tag_118\n        /* \"#utility.yul\":823:828   */\n      dup2\n        /* \"#utility.yul\":796:829   */\n      tag_89\n      jump\t// in\n    tag_118:\n        /* \"#utility.yul\":696:835   */\n      swap3\n      swap2\n      pop\n      pop\n      jump\t// out\n        /* \"#utility.yul\":841:918   */\n    tag_91:\n        /* \"#utility.yul\":878:885   */\n      0x00\n        /* \"#utility.yul\":907:912   */\n      dup2\n        /* \"#utility.yul\":896:912   */\n      swap1\n      pop\n        /* \"#utility.yul\":841:918   */\n      swap2\n      swap1\n      pop\n      jump\t// out\n        /* \"#utility.yul\":924:1046   */\n    tag_92:\n        /* \"#utility.yul\":997:1021   */\n      tag_121\n        /* \"#utility.yul\":1015:1020   */\n      dup2\n        /* \"#utility.yul\":997:1021   */\n      tag_91\n      jump\t// in\n    tag_121:\n        /* \"#utility.yul\":990:995   */\n      dup2\n        /* \"#utility.yul\":987:1022   */\n      eq\n        /* \"#utility.yul\":977:1040   */\n      tag_122\n      jumpi\n        /* \"#utility.yul\":1036:1037   */\n      0x00\n        /* \"#utility.yul\":1033:1034   */\n      dup1\n        /* \"#utility.yul\":1026:1038   */\n      revert\n        /* \"#utility.yul\":977:1040   */\n    tag_122:\n        /* \"#utility.yul\":924:1046   */\n      pop\n      jump\t// out\n        /* \"#utility.yul\":1052:1191   */\n    tag_93:\n        /* \"#utility.yul\":1098:1103   */\n      0x00\n        /* \"#utility.yul\":1136:1142   */\n      dup2\n        /* \"#utility.yul\":1123:1143   */\n      calldataload\n        /* \"#utility.yul\":1114:1143   */\n      swap1\n      pop\n        /* \"#utility.yul\":1152:1185   */\n      tag_124\n        /* \"#utility.yul\":1179:1184   */\n      dup2\n        /* \"#utility.yul\":1152:1185   */\n      tag_92\n      jump\t// in\n    tag_124:\n        /* \"#utility.yul\":1052:1191   */\n      swap3\n      swap2\n      pop\n      pop\n      jump\t// out\n        /* \"#utility.yul\":1197:1671   */\n    tag_14:\n        /* \"#utility.yul\":1265:1271   */\n      0x00\n        /* \"#utility.yul\":1273:1279   */\n      dup1\n        /* \"#utility.yul\":1322:1324   */\n      0x40\n        /* \"#utility.yul\":1310:1319   */\n      dup4\n        /* \"#utility.yul\":1301:1308   */\n      dup6\n        /* \"#utility.yul\":1297:1320   */\n      sub\n        /* \"#utility.yul\":1293:1325   */\n      slt\n        /* \"#utility.yul\":1290:1409   */\n      iszero\n      tag_126\n      jumpi\n        /* \"#utility.yul\":1328:1407   */\n      tag_127\n      tag_85\n      jump\t// in\n    tag_127:\n        /* \"#utility.yul\":1290:1409   */\n    tag_126:\n        /* \"#utility.yul\":1448:1449   */\n      0x00\n        /* \"#utility.yul\":1473:1526   */\n      tag_128\n        /* \"#utility.yul\":1518:1525   */\n      dup6\n        /* \"#utility.yul\":1509:1515   */\n      dup3\n        /* \"#utility.yul\":1498:1507   */\n      dup7\n        /* \"#utility.yul\":1494:1516   */\n      add\n        /* \"#utility.yul\":1473:1526   */\n      tag_90\n      jump\t// in\n    tag_128:\n        /* \"#utility.yul\":1463:1526   */\n      swap3\n      pop\n        /* \"#utility.yul\":1419:1536   */\n      pop\n        /* \"#utility.yul\":1575:1577   */\n      0x20\n        /* \"#utility.yul\":1601:1654   */\n      tag_129\n        /* \"#utility.yul\":1646:1653   */\n      dup6\n        /* \"#utility.yul\":1637:1643   */\n      dup3\n        /* \"#utility.yul\":1626:1635   */\n      dup7\n        /* \"#utility.yul\":1622:1644   */\n      add\n        /* \"#utility.yul\":1601:1654   */\n      tag_93\n      jump\t// in\n    tag_129:\n        /* \"#utility.yul\":1591:1654   */\n      swap2\n      pop\n        /* \"#utility.yul\":1546:1664   */\n      pop\n        /* \"#utility.yul\":1197:1671   */\n      swap3\n      pop\n      swap3\n      swap1\n      pop\n      jump\t// out\n        /* \"#utility.yul\":1677:1767   */\n    tag_94:\n        /* \"#utility.yul\":1711:1718   */\n      0x00\n        /* \"#utility.yul\":1754:1759   */\n      dup2\n        /* \"#utility.yul\":1747:1760   */\n      iszero\n        /* \"#utility.yul\":1740:1761   */\n      iszero\n        /* \"#utility.yul\":1729:1761   */\n      swap1\n      pop\n        /* \"#utility.yul\":1677:1767   */\n      swap2\n      swap1\n      pop\n      jump\t// out\n        /* \"#utility.yul\":1773:1882   */\n    tag_95:\n        /* \"#utility.yul\":1854:1875   */\n      tag_132\n        /* \"#utility.yul\":1869:1874   */\n      dup2\n        /* \"#utility.yul\":1854:1875   */\n      tag_94\n      jump\t// in\n    tag_132:\n        /* \"#utility.yul\":1849:1852   */\n      dup3\n        /* \"#utility.yul\":1842:1876   */\n      mstore\n        /* \"#utility.yul\":1773:1882   */\n      pop\n      pop\n      jump\t// out\n        /* \"#utility.yul\":1888:2098   */\n    tag_17:\n        /* \"#utility.yul\":1975:1979   */\n      0x00\n        /* \"#utility.yul\":2013:2015   */\n      0x20\n        /* \"#utility.yul\":2002:2011   */\n      dup3\n        /* \"#utility.yul\":1998:2016   */\n      add\n        /* \"#utility.yul\":1990:2016   */\n      swap1\n      pop\n        /* \"#utility.yul\":2026:2091   */\n      tag_134\n        /* \"#utility.yul\":2088:2089   */\n      0x00\n        /* \"#utility.yul\":2077:2086   */\n      dup4\n        /* \"#utility.yul\":2073:2090   */\n      add\n        /* \"#utility.yul\":2064:2070   */\n      dup5\n        /* \"#utility.yul\":2026:2091   */\n      tag_95\n      jump\t// in\n    tag_134:\n        /* \"#utility.yul\":1888:2098   */\n      swap3\n      swap2\n      pop\n      pop\n      jump\t// out\n        /* \"#utility.yul\":2104:2208   */\n    tag_96:\n        /* \"#utility.yul\":2149:2156   */\n      0x00\n        /* \"#utility.yul\":2178:2202   */\n      tag_136\n        /* \"#utility.yul\":2196:2201   */\n      dup3\n        /* \"#utility.yul\":2178:2202   */\n      tag_87\n      jump\t// in\n    tag_136:\n        /* \"#utility.yul\":2167:2202   */\n      swap1\n      pop\n        /* \"#utility.yul\":2104:2208   */\n      swap2\n      swap1\n      pop\n      jump\t// out\n        /* \"#utility.yul\":2214:2352   */\n    tag_97:\n        /* \"#utility.yul\":2295:2327   */\n      tag_138\n        /* \"#utility.yul\":2321:2326   */\n      dup2\n        /* \"#utility.yul\":2295:2327   */\n      tag_96\n      jump\t// in\n    tag_138:\n        /* \"#utility.yul\":2288:2293   */\n      dup2\n        /* \"#utility.yul\":2285:2328   */\n      eq\n        /* \"#utility.yul\":2275:2346   */\n      tag_139\n      jumpi\n        /* \"#utility.yul\":2342:2343   */\n      0x00\n        /* \"#utility.yul\":2339:2340   */\n      dup1\n        /* \"#utility.yul\":2332:2344   */\n      revert\n        /* \"#utility.yul\":2275:2346   */\n    tag_139:\n        /* \"#utility.yul\":2214:2352   */\n      pop\n      jump\t// out\n        /* \"#utility.yul\":2358:2513   */\n    tag_98:\n        /* \"#utility.yul\":2412:2417   */\n      0x00\n        /* \"#utility.yul\":2450:2456   */\n      dup2\n        /* \"#utility.yul\":2437:2457   */\n      calldataload\n        /* \"#utility.yul\":2428:2457   */\n      swap1\n      pop\n        /* \"#utility.yul\":2466:2507   */\n      tag_141\n        /* \"#utility.yul\":2501:2506   */\n      dup2\n        /* \"#utility.yul\":2466:2507   */\n      tag_97\n      jump\t// in\n    tag_141:\n        /* \"#utility.yul\":2358:2513   */\n      swap3\n      swap2\n      pop\n      pop\n      jump\t// out\n        /* \"#utility.yul\":2519:2864   */\n    tag_20:\n        /* \"#utility.yul\":2586:2592   */\n      0x00\n        /* \"#utility.yul\":2635:2637   */\n      0x20\n        /* \"#utility.yul\":2623:2632   */\n      dup3\n        /* \"#utility.yul\":2614:2621   */\n      dup5\n        /* \"#utility.yul\":2610:2633   */\n      sub\n        /* \"#utility.yul\":2606:2638   */\n      slt\n        /* \"#utility.yul\":2603:2722   */\n      iszero\n      tag_143\n      jumpi\n        /* \"#utility.yul\":2641:2720   */\n      tag_144\n      tag_85\n      jump\t// in\n    tag_144:\n        /* \"#utility.yul\":2603:2722   */\n    tag_143:\n        /* \"#utility.yul\":2761:2762   */\n      0x00\n        /* \"#utility.yul\":2786:2847   */\n      tag_145\n        /* \"#utility.yul\":2839:2846   */\n      dup5\n        /* \"#utility.yul\":2830:2836   */\n      dup3\n        /* \"#utility.yul\":2819:2828   */\n      dup6\n        /* \"#utility.yul\":2815:2837   */\n      add\n        /* \"#utility.yul\":2786:2847   */\n      tag_98\n      jump\t// in\n    tag_145:\n        /* \"#utility.yul\":2776:2847   */\n      swap2\n      pop\n        /* \"#utility.yul\":2732:2857   */\n      pop\n        /* \"#utility.yul\":2519:2864   */\n      swap3\n      swap2\n      pop\n      pop\n      jump\t// out\n        /* \"#utility.yul\":2870:3199   */\n    tag_27:\n        /* \"#utility.yul\":2929:2935   */\n      0x00\n        /* \"#utility.yul\":2978:2980   */\n      0x20\n        /* \"#utility.yul\":2966:2975   */\n      dup3\n        /* \"#utility.yul\":2957:2964   */\n      dup5\n        /* \"#utility.yul\":2953:2976   */\n      sub\n        /* \"#utility.yul\":2949:2981   */\n      slt\n        /* \"#utility.yul\":2946:3065   */\n      iszero\n      tag_147\n      jumpi\n        /* \"#utility.yul\":2984:3063   */\n      tag_148\n      tag_85\n      jump\t// in\n    tag_148:\n        /* \"#utility.yul\":2946:3065   */\n    tag_147:\n        /* \"#utility.yul\":3104:3105   */\n      0x00\n        /* \"#utility.yul\":3129:3182   */\n      tag_149\n        /* \"#utility.yul\":3174:3181   */\n      dup5\n        /* \"#utility.yul\":3165:3171   */\n      dup3\n        /* \"#utility.yul\":3154:3163   */\n      dup6\n        /* \"#utility.yul\":3150:3172   */\n      add\n        /* \"#utility.yul\":3129:3182   */\n      tag_90\n      jump\t// in\n    tag_149:\n        /* \"#utility.yul\":3119:3182   */\n      swap2\n      pop\n        /* \"#utility.yul\":3075:3192   */\n      pop\n        /* \"#utility.yul\":2870:3199   */\n      swap3\n      swap2\n      pop\n      pop\n      jump\t// out\n        /* \"#utility.yul\":3205:3323   */\n    tag_99:\n        /* \"#utility.yul\":3292:3316   */\n      tag_151\n        /* \"#utility.yul\":3310:3315   */\n      dup2\n        /* \"#utility.yul\":3292:3316   */\n      tag_91\n      jump\t// in\n    tag_151:\n        /* \"#utility.yul\":3287:3290   */\n      dup3\n        /* \"#utility.yul\":3280:3317   */\n      mstore\n        /* \"#utility.yul\":3205:3323   */\n      pop\n      pop\n      jump\t// out\n        /* \"#utility.yul\":3329:3551   */\n    tag_33:\n        /* \"#utility.yul\":3422:3426   */\n      0x00\n        /* \"#utility.yul\":3460:3462   */\n      0x20\n        /* \"#utility.yul\":3449:3458   */\n      dup3\n        /* \"#utility.yul\":3445:3463   */\n      add\n        /* \"#utility.yul\":3437:3463   */\n      swap1\n      pop\n        /* \"#utility.yul\":3473:3544   */\n      tag_153\n        /* \"#utility.yul\":3541:3542   */\n      0x00\n        /* \"#utility.yul\":3530:3539   */\n      dup4\n        /* \"#utility.yul\":3526:3543   */\n      add\n        /* \"#utility.yul\":3517:3523   */\n      dup5\n        /* \"#utility.yul\":3473:3544   */\n      tag_99\n      jump\t// in\n    tag_153:\n        /* \"#utility.yul\":3329:3551   */\n      swap3\n      swap2\n      pop\n      pop\n      jump\t// out\n        /* \"#utility.yul\":3557:4047   */\n    tag_37:\n        /* \"#utility.yul\":3633:3639   */\n      0x00\n        /* \"#utility.yul\":3641:3647   */\n      dup1\n        /* \"#utility.yul\":3690:3692   */\n      0x40\n        /* \"#utility.yul\":3678:3687   */\n      dup4\n        /* \"#utility.yul\":3669:3676   */\n      dup6\n        /* \"#utility.yul\":3665:3688   */\n      sub\n        /* \"#utility.yul\":3661:3693   */\n      slt\n        /* \"#utility.yul\":3658:3777   */\n      iszero\n      tag_155\n      jumpi\n        /* \"#utility.yul\":3696:3775   */\n      tag_156\n      tag_85\n      jump\t// in\n    tag_156:\n        /* \"#utility.yul\":3658:3777   */\n    tag_155:\n        /* \"#utility.yul\":3816:3817   */\n      0x00\n        /* \"#utility.yul\":3841:3902   */\n      tag_157\n        /* \"#utility.yul\":3894:3901   */\n      dup6\n        /* \"#utility.yul\":3885:3891   */\n      dup3\n        /* \"#utility.yul\":3874:3883   */\n      dup7\n        /* \"#utility.yul\":3870:3892   */\n      add\n        /* \"#utility.yul\":3841:3902   */\n      tag_98\n      jump\t// in\n    tag_157:\n        /* \"#utility.yul\":3831:3902   */\n      swap3\n      pop\n        /* \"#utility.yul\":3787:3912   */\n      pop\n        /* \"#utility.yul\":3951:3953   */\n      0x20\n        /* \"#utility.yul\":3977:4030   */\n      tag_158\n        /* \"#utility.yul\":4022:4029   */\n      dup6\n        /* \"#utility.yul\":4013:4019   */\n      dup3\n        /* \"#utility.yul\":4002:4011   */\n      dup7\n        /* \"#utility.yul\":3998:4020   */\n      add\n        /* \"#utility.yul\":3977:4030   */\n      tag_93\n      jump\t// in\n    tag_158:\n        /* \"#utility.yul\":3967:4030   */\n      swap2\n      pop\n        /* \"#utility.yul\":3922:4040   */\n      pop\n        /* \"#utility.yul\":3557:4047   */\n      swap3\n      pop\n      swap3\n      swap1\n      pop\n      jump\t// out\n        /* \"#utility.yul\":4053:4200   */\n    tag_100:\n        /* \"#utility.yul\":4154:4165   */\n      0x00\n        /* \"#utility.yul\":4191:4194   */\n      dup2\n        /* \"#utility.yul\":4176:4194   */\n      swap1\n      pop\n        /* \"#utility.yul\":4053:4200   */\n      swap3\n      swap2\n      pop\n      pop\n      jump\t// out\n        /* \"#utility.yul\":4206:4320   */\n    tag_101:\n      pop\n      jump\t// out\n        /* \"#utility.yul\":4326:4724   */\n    tag_102:\n        /* \"#utility.yul\":4485:4488   */\n      0x00\n        /* \"#utility.yul\":4506:4589   */\n      tag_162\n        /* \"#utility.yul\":4587:4588   */\n      0x00\n        /* \"#utility.yul\":4582:4585   */\n      dup4\n        /* \"#utility.yul\":4506:4589   */\n      tag_100\n      jump\t// in\n    tag_162:\n        /* \"#utility.yul\":4499:4589   */\n      swap2\n      pop\n        /* \"#utility.yul\":4598:4691   */\n      tag_163\n        /* \"#utility.yul\":4687:4690   */\n      dup3\n        /* \"#utility.yul\":4598:4691   */\n      tag_101\n      jump\t// in\n    tag_163:\n        /* \"#utility.yul\":4716:4717   */\n      0x00\n        /* \"#utility.yul\":4711:4714   */\n      dup3\n        /* \"#utility.yul\":4707:4718   */\n      add\n        /* \"#utility.yul\":4700:4718   */\n      swap1\n      pop\n        /* \"#utility.yul\":4326:4724   */\n      swap2\n      swap1\n      pop\n      jump\t// out\n        /* \"#utility.yul\":4730:5109   */\n    tag_48:\n        /* \"#utility.yul\":4914:4917   */\n      0x00\n        /* \"#utility.yul\":4936:5083   */\n      tag_165\n        /* \"#utility.yul\":5079:5082   */\n      dup3\n        /* \"#utility.yul\":4936:5083   */\n      tag_102\n      jump\t// in\n    tag_165:\n        /* \"#utility.yul\":4929:5083   */\n      swap2\n      pop\n        /* \"#utility.yul\":5100:5103   */\n      dup2\n        /* \"#utility.yul\":5093:5103   */\n      swap1\n      pop\n        /* \"#utility.yul\":4730:5109   */\n      swap2\n      swap1\n      pop\n      jump\t// out\n        /* \"#utility.yul\":5115:5284   */\n    tag_103:\n        /* \"#utility.yul\":5199:5210   */\n      0x00\n        /* \"#utility.yul\":5233:5239   */\n      dup3\n        /* \"#utility.yul\":5228:5231   */\n      dup3\n        /* \"#utility.yul\":5221:5240   */\n      mstore\n        /* \"#utility.yul\":5273:5277   */\n      0x20\n        /* \"#utility.yul\":5268:5271   */\n      dup3\n        /* \"#utility.yul\":5264:5278   */\n      add\n        /* \"#utility.yul\":5249:5278   */\n      swap1\n      pop\n        /* \"#utility.yul\":5115:5284   */\n      swap3\n      swap2\n      pop\n      pop\n      jump\t// out\n        /* \"#utility.yul\":5290:5460   */\n    tag_104:\n        /* \"#utility.yul\":5430:5452   */\n      0x4661696c656420746f2073656e64204574686572000000000000000000000000\n        /* \"#utility.yul\":5426:5427   */\n      0x00\n        /* \"#utility.yul\":5418:5424   */\n      dup3\n        /* \"#utility.yul\":5414:5428   */\n      add\n        /* \"#utility.yul\":5407:5453   */\n      mstore\n        /* \"#utility.yul\":5290:5460   */\n      pop\n      jump\t// out\n        /* \"#utility.yul\":5466:5832   */\n    tag_105:\n        /* \"#utility.yul\":5608:5611   */\n      0x00\n        /* \"#utility.yul\":5629:5696   */\n      tag_169\n        /* \"#utility.yul\":5693:5695   */\n      0x14\n        /* \"#utility.yul\":5688:5691   */\n      dup4\n        /* \"#utility.yul\":5629:5696   */\n      tag_103\n      jump\t// in\n    tag_169:\n        /* \"#utility.yul\":5622:5696   */\n      swap2\n      pop\n        /* \"#utility.yul\":5705:5798   */\n      tag_170\n        /* \"#utility.yul\":5794:5797   */\n      dup3\n        /* \"#utility.yul\":5705:5798   */\n      tag_104\n      jump\t// in\n    tag_170:\n        /* \"#utility.yul\":5823:5825   */\n      0x20\n        /* \"#utility.yul\":5818:5821   */\n      dup3\n        /* \"#utility.yul\":5814:5826   */\n      add\n        /* \"#utility.yul\":5807:5826   */\n      swap1\n      pop\n        /* \"#utility.yul\":5466:5832   */\n      swap2\n      swap1\n      pop\n      jump\t// out\n        /* \"#utility.yul\":5838:6257   */\n    tag_54:\n        /* \"#utility.yul\":6004:6008   */\n      0x00\n        /* \"#utility.yul\":6042:6044   */\n      0x20\n        /* \"#utility.yul\":6031:6040   */\n      dup3\n        /* \"#utility.yul\":6027:6045   */\n      add\n        /* \"#utility.yul\":6019:6045   */\n      swap1\n      pop\n        /* \"#utility.yul\":6091:6100   */\n      dup2\n        /* \"#utility.yul\":6085:6089   */\n      dup2\n        /* \"#utility.yul\":6081:6101   */\n      sub\n        /* \"#utility.yul\":6077:6078   */\n      0x00\n        /* \"#utility.yul\":6066:6075   */\n      dup4\n        /* \"#utility.yul\":6062:6079   */\n      add\n        /* \"#utility.yul\":6055:6102   */\n      mstore\n        /* \"#utility.yul\":6119:6250   */\n      tag_172\n        /* \"#utility.yul\":6245:6249   */\n      dup2\n        /* \"#utility.yul\":6119:6250   */\n      tag_105\n      jump\t// in\n    tag_172:\n        /* \"#utility.yul\":6111:6250   */\n      swap1\n      pop\n        /* \"#utility.yul\":5838:6257   */\n      swap2\n      swap1\n      pop\n      jump\t// out\n        /* \"#utility.yul\":6263:6443   */\n    tag_106:\n        /* \"#utility.yul\":6311:6388   */\n      0x4e487b7100000000000000000000000000000000000000000000000000000000\n        /* \"#utility.yul\":6308:6309   */\n      0x00\n        /* \"#utility.yul\":6301:6389   */\n      mstore\n        /* \"#utility.yul\":6408:6412   */\n      0x11\n        /* \"#utility.yul\":6405:6406   */\n      0x04\n        /* \"#utility.yul\":6398:6413   */\n      mstore\n        /* \"#utility.yul\":6432:6436   */\n      0x24\n        /* \"#utility.yul\":6429:6430   */\n      0x00\n        /* \"#utility.yul\":6422:6437   */\n      revert\n        /* \"#utility.yul\":6449:6640   */\n    tag_83:\n        /* \"#utility.yul\":6489:6492   */\n      0x00\n        /* \"#utility.yul\":6508:6528   */\n      tag_175\n        /* \"#utility.yul\":6526:6527   */\n      dup3\n        /* \"#utility.yul\":6508:6528   */\n      tag_91\n      jump\t// in\n    tag_175:\n        /* \"#utility.yul\":6503:6528   */\n      swap2\n      pop\n        /* \"#utility.yul\":6542:6562   */\n      tag_176\n        /* \"#utility.yul\":6560:6561   */\n      dup4\n        /* \"#utility.yul\":6542:6562   */\n      tag_91\n      jump\t// in\n    tag_176:\n        /* \"#utility.yul\":6537:6562   */\n      swap3\n      pop\n        /* \"#utility.yul\":6585:6586   */\n      dup3\n        /* \"#utility.yul\":6582:6583   */\n      dup3\n        /* \"#utility.yul\":6578:6587   */\n      add\n        /* \"#utility.yul\":6571:6587   */\n      swap1\n      pop\n        /* \"#utility.yul\":6606:6609   */\n      dup1\n        /* \"#utility.yul\":6603:6604   */\n      dup3\n        /* \"#utility.yul\":6600:6610   */\n      gt\n        /* \"#utility.yul\":6597:6633   */\n      iszero\n      tag_177\n      jumpi\n        /* \"#utility.yul\":6613:6631   */\n      tag_178\n      tag_106\n      jump\t// in\n    tag_178:\n        /* \"#utility.yul\":6597:6633   */\n    tag_177:\n        /* \"#utility.yul\":6449:6640   */\n      swap3\n      swap2\n      pop\n      pop\n      jump\t// out\n\n    auxdata: 0xa26469706673582212202939d006de97698736e3ab79cc3911339eea4e2298301b484c91a115c47d625a64736f6c63430008110033\n}\n",
				"bytecode": {
					"linkReferences": {},
					"object": "608060405234801561001057600080fd5b506108a2806100206000396000f3fe60806040526004361061007b5760003560e01c806383a6deb51161004e57806383a6deb5146101115780639e1a00aa1461013c578063a1712ece14610165578063d0e30db0146101a25761007b565b80631cc09c9a14610080578063636e082b146100bd57806374be4806146100d9578063830c29ae146100f5575b600080fd5b34801561008c57600080fd5b506100a760048036038101906100a291906105ce565b6101ac565b6040516100b49190610629565b60405180910390f35b6100d760048036038101906100d29190610682565b610268565b005b6100f360048036038101906100ee9190610682565b6102b2565b005b61010f600480360381019061010a91906106af565b61032f565b005b34801561011d57600080fd5b506101266103e2565b60405161013391906106eb565b60405180910390f35b34801561014857600080fd5b50610163600480360381019061015e9190610706565b6103e8565b005b34801561017157600080fd5b5061018c600480360381019061018791906105ce565b61049c565b6040516101999190610629565b60405180910390f35b6101aa61051b565b005b60008060008473ffffffffffffffffffffffffffffffffffffffff166108fc856040516101d890610777565b600060405180830381858888f193505050503d8060008114610216576040519150601f19603f3d011682016040523d82523d6000602084013e61021b565b606091505b509150915081610260576040517f08c379a0000000000000000000000000000000000000000000000000000000008152600401610257906107e9565b60405180910390fd5b505092915050565b8073ffffffffffffffffffffffffffffffffffffffff166108fc349081150290604051600060405180830381858888f193505050501580156102ae573d6000803e3d6000fd5b5050565b60008173ffffffffffffffffffffffffffffffffffffffff166108fc349081150290604051600060405180830381858888f1935050505090508061032b576040517f08c379a0000000000000000000000000000000000000000000000000000000008152600401610322906107e9565b60405180910390fd5b5050565b6000808273ffffffffffffffffffffffffffffffffffffffff163460405161035690610777565b60006040518083038185875af1925050503d8060008114610393576040519150601f19603f3d011682016040523d82523d6000602084013e610398565b606091505b5091509150816103dd576040517f08c379a00000000000000000000000000000000000000000000000000000000081526004016103d4906107e9565b60405180910390fd5b505050565b60005481565b6000808373ffffffffffffffffffffffffffffffffffffffff168360405161040f90610777565b60006040518083038185875af1925050503d806000811461044c576040519150601f19603f3d011682016040523d82523d6000602084013e610451565b606091505b509150915081610496576040517f08c379a000000000000000000000000000000000000000000000000000000000815260040161048d906107e9565b60405180910390fd5b50505050565b60008060008473ffffffffffffffffffffffffffffffffffffffff166108fc856040516104c890610777565b600060405180830381858888f193505050503d8060008114610506576040519150601f19603f3d011682016040523d82523d6000602084013e61050b565b606091505b5091509150819250505092915050565b3460008082825461052c9190610838565b92505081905550565b600080fd5b600073ffffffffffffffffffffffffffffffffffffffff82169050919050565b60006105658261053a565b9050919050565b6105758161055a565b811461058057600080fd5b50565b6000813590506105928161056c565b92915050565b6000819050919050565b6105ab81610598565b81146105b657600080fd5b50565b6000813590506105c8816105a2565b92915050565b600080604083850312156105e5576105e4610535565b5b60006105f385828601610583565b9250506020610604858286016105b9565b9150509250929050565b60008115159050919050565b6106238161060e565b82525050565b600060208201905061063e600083018461061a565b92915050565b600061064f8261053a565b9050919050565b61065f81610644565b811461066a57600080fd5b50565b60008135905061067c81610656565b92915050565b60006020828403121561069857610697610535565b5b60006106a68482850161066d565b91505092915050565b6000602082840312156106c5576106c4610535565b5b60006106d384828501610583565b91505092915050565b6106e581610598565b82525050565b600060208201905061070060008301846106dc565b92915050565b6000806040838503121561071d5761071c610535565b5b600061072b8582860161066d565b925050602061073c858286016105b9565b9150509250929050565b600081905092915050565b50565b6000610761600083610746565b915061076c82610751565b600082019050919050565b600061078282610754565b9150819050919050565b600082825260208201905092915050565b7f4661696c656420746f2073656e64204574686572000000000000000000000000600082015250565b60006107d360148361078c565b91506107de8261079d565b602082019050919050565b60006020820190508181036000830152610802816107c6565b9050919050565b7f4e487b7100000000000000000000000000000000000000000000000000000000600052601160045260246000fd5b600061084382610598565b915061084e83610598565b925082820190508082111561086657610865610809565b5b9291505056fea26469706673582212202939d006de97698736e3ab79cc3911339eea4e2298301b484c91a115c47d625a64736f6c63430008110033",
					"opcodes": "PUSH1 0x80 PUSH1 0x40 MSTORE CALLVALUE DUP1 ISZERO PUSH2 0x10 JUMPI PUSH1 0x0 DUP1 REVERT JUMPDEST POP PUSH2 0x8A2 DUP1 PUSH2 0x20 PUSH1 0x0 CODECOPY PUSH1 0x0 RETURN INVALID PUSH1 0x80 PUSH1 0x40 MSTORE PUSH1 0x4 CALLDATASIZE LT PUSH2 0x7B JUMPI PUSH1 0x0 CALLDATALOAD PUSH1 0xE0 SHR DUP1 PUSH4 0x83A6DEB5 GT PUSH2 0x4E JUMPI DUP1 PUSH4 0x83A6DEB5 EQ PUSH2 0x111 JUMPI DUP1 PUSH4 0x9E1A00AA EQ PUSH2 0x13C JUMPI DUP1 PUSH4 0xA1712ECE EQ PUSH2 0x165 JUMPI DUP1 PUSH4 0xD0E30DB0 EQ PUSH2 0x1A2 JUMPI PUSH2 0x7B JUMP JUMPDEST DUP1 PUSH4 0x1CC09C9A EQ PUSH2 0x80 JUMPI DUP1 PUSH4 0x636E082B EQ PUSH2 0xBD JUMPI DUP1 PUSH4 0x74BE4806 EQ PUSH2 0xD9 JUMPI DUP1 PUSH4 0x830C29AE EQ PUSH2 0xF5 JUMPI JUMPDEST PUSH1 0x0 DUP1 REVERT JUMPDEST CALLVALUE DUP1 ISZERO PUSH2 0x8C JUMPI PUSH1 0x0 DUP1 REVERT JUMPDEST POP PUSH2 0xA7 PUSH1 0x4 DUP1 CALLDATASIZE SUB DUP2 ADD SWAP1 PUSH2 0xA2 SWAP2 SWAP1 PUSH2 0x5CE JUMP JUMPDEST PUSH2 0x1AC JUMP JUMPDEST PUSH1 0x40 MLOAD PUSH2 0xB4 SWAP2 SWAP1 PUSH2 0x629 JUMP JUMPDEST PUSH1 0x40 MLOAD DUP1 SWAP2 SUB SWAP1 RETURN JUMPDEST PUSH2 0xD7 PUSH1 0x4 DUP1 CALLDATASIZE SUB DUP2 ADD SWAP1 PUSH2 0xD2 SWAP2 SWAP1 PUSH2 0x682 JUMP JUMPDEST PUSH2 0x268 JUMP JUMPDEST STOP JUMPDEST PUSH2 0xF3 PUSH1 0x4 DUP1 CALLDATASIZE SUB DUP2 ADD SWAP1 PUSH2 0xEE SWAP2 SWAP1 PUSH2 0x682 JUMP JUMPDEST PUSH2 0x2B2 JUMP JUMPDEST STOP JUMPDEST PUSH2 0x10F PUSH1 0x4 DUP1 CALLDATASIZE SUB DUP2 ADD SWAP1 PUSH2 0x10A SWAP2 SWAP1 PUSH2 0x6AF JUMP JUMPDEST PUSH2 0x32F JUMP JUMPDEST STOP JUMPDEST CALLVALUE DUP1 ISZERO PUSH2 0x11D JUMPI PUSH1 0x0 DUP1 REVERT JUMPDEST POP PUSH2 0x126 PUSH2 0x3E2 JUMP JUMPDEST PUSH1 0x40 MLOAD PUSH2 0x133 SWAP2 SWAP1 PUSH2 0x6EB JUMP JUMPDEST PUSH1 0x40 MLOAD DUP1 SWAP2 SUB SWAP1 RETURN JUMPDEST CALLVALUE DUP1 ISZERO PUSH2 0x148 JUMPI PUSH1 0x0 DUP1 REVERT JUMPDEST POP PUSH2 0x163 PUSH1 0x4 DUP1 CALLDATASIZE SUB DUP2 ADD SWAP1 PUSH2 0x15E SWAP2 SWAP1 PUSH2 0x706 JUMP JUMPDEST PUSH2 0x3E8 JUMP JUMPDEST STOP JUMPDEST CALLVALUE DUP1 ISZERO PUSH2 0x171 JUMPI PUSH1 0x0 DUP1 REVERT JUMPDEST POP PUSH2 0x18C PUSH1 0x4 DUP1 CALLDATASIZE SUB DUP2 ADD SWAP1 PUSH2 0x187 SWAP2 SWAP1 PUSH2 0x5CE JUMP JUMPDEST PUSH2 0x49C JUMP JUMPDEST PUSH1 0x40 MLOAD PUSH2 0x199 SWAP2 SWAP1 PUSH2 0x629 JUMP JUMPDEST PUSH1 0x40 MLOAD DUP1 SWAP2 SUB SWAP1 RETURN JUMPDEST PUSH2 0x1AA PUSH2 0x51B JUMP JUMPDEST STOP JUMPDEST PUSH1 0x0 DUP1 PUSH1 0x0 DUP5 PUSH20 0xFFFFFFFFFFFFFFFFFFFFFFFFFFFFFFFFFFFFFFFF AND PUSH2 0x8FC DUP6 PUSH1 0x40 MLOAD PUSH2 0x1D8 SWAP1 PUSH2 0x777 JUMP JUMPDEST PUSH1 0x0 PUSH1 0x40 MLOAD DUP1 DUP4 SUB DUP2 DUP6 DUP9 DUP9 CALL SWAP4 POP POP POP POP RETURNDATASIZE DUP1 PUSH1 0x0 DUP2 EQ PUSH2 0x216 JUMPI PUSH1 0x40 MLOAD SWAP2 POP PUSH1 0x1F NOT PUSH1 0x3F RETURNDATASIZE ADD AND DUP3 ADD PUSH1 0x40 MSTORE RETURNDATASIZE DUP3 MSTORE RETURNDATASIZE PUSH1 0x0 PUSH1 0x20 DUP5 ADD RETURNDATACOPY PUSH2 0x21B JUMP JUMPDEST PUSH1 0x60 SWAP2 POP JUMPDEST POP SWAP2 POP SWAP2 POP DUP2 PUSH2 0x260 JUMPI PUSH1 0x40 MLOAD PUSH32 0x8C379A000000000000000000000000000000000000000000000000000000000 DUP2 MSTORE PUSH1 0x4 ADD PUSH2 0x257 SWAP1 PUSH2 0x7E9 JUMP JUMPDEST PUSH1 0x40 MLOAD DUP1 SWAP2 SUB SWAP1 REVERT JUMPDEST POP POP SWAP3 SWAP2 POP POP JUMP JUMPDEST DUP1 PUSH20 0xFFFFFFFFFFFFFFFFFFFFFFFFFFFFFFFFFFFFFFFF AND PUSH2 0x8FC CALLVALUE SWAP1 DUP2 ISZERO MUL SWAP1 PUSH1 0x40 MLOAD PUSH1 0x0 PUSH1 0x40 MLOAD DUP1 DUP4 SUB DUP2 DUP6 DUP9 DUP9 CALL SWAP4 POP POP POP POP ISZERO DUP1 ISZERO PUSH2 0x2AE JUMPI RETURNDATASIZE PUSH1 0x0 DUP1 RETURNDATACOPY RETURNDATASIZE PUSH1 0x0 REVERT JUMPDEST POP POP JUMP JUMPDEST PUSH1 0x0 DUP2 PUSH20 0xFFFFFFFFFFFFFFFFFFFFFFFFFFFFFFFFFFFFFFFF AND PUSH2 0x8FC CALLVALUE SWAP1 DUP2 ISZERO MUL SWAP1 PUSH1 0x40 MLOAD PUSH1 0x0 PUSH1 0x40 MLOAD DUP1 DUP4 SUB DUP2 DUP6 DUP9 DUP9 CALL SWAP4 POP POP POP POP SWAP1 POP DUP1 PUSH2 0x32B JUMPI PUSH1 0x40 MLOAD PUSH32 0x8C379A000000000000000000000000000000000000000000000000000000000 DUP2 MSTORE PUSH1 0x4 ADD PUSH2 0x322 SWAP1 PUSH2 0x7E9 JUMP JUMPDEST PUSH1 0x40 MLOAD DUP1 SWAP2 SUB SWAP1 REVERT JUMPDEST POP POP JUMP JUMPDEST PUSH1 0x0 DUP1 DUP3 PUSH20 0xFFFFFFFFFFFFFFFFFFFFFFFFFFFFFFFFFFFFFFFF AND CALLVALUE PUSH1 0x40 MLOAD PUSH2 0x356 SWAP1 PUSH2 0x777 JUMP JUMPDEST PUSH1 0x0 PUSH1 0x40 MLOAD DUP1 DUP4 SUB DUP2 DUP6 DUP8 GAS CALL SWAP3 POP POP POP RETURNDATASIZE DUP1 PUSH1 0x0 DUP2 EQ PUSH2 0x393 JUMPI PUSH1 0x40 MLOAD SWAP2 POP PUSH1 0x1F NOT PUSH1 0x3F RETURNDATASIZE ADD AND DUP3 ADD PUSH1 0x40 MSTORE RETURNDATASIZE DUP3 MSTORE RETURNDATASIZE PUSH1 0x0 PUSH1 0x20 DUP5 ADD RETURNDATACOPY PUSH2 0x398 JUMP JUMPDEST PUSH1 0x60 SWAP2 POP JUMPDEST POP SWAP2 POP SWAP2 POP DUP2 PUSH2 0x3DD JUMPI PUSH1 0x40 MLOAD PUSH32 0x8C379A000000000000000000000000000000000000000000000000000000000 DUP2 MSTORE PUSH1 0x4 ADD PUSH2 0x3D4 SWAP1 PUSH2 0x7E9 JUMP JUMPDEST PUSH1 0x40 MLOAD DUP1 SWAP2 SUB SWAP1 REVERT JUMPDEST POP POP POP JUMP JUMPDEST PUSH1 0x0 SLOAD DUP2 JUMP JUMPDEST PUSH1 0x0 DUP1 DUP4 PUSH20 0xFFFFFFFFFFFFFFFFFFFFFFFFFFFFFFFFFFFFFFFF AND DUP4 PUSH1 0x40 MLOAD PUSH2 0x40F SWAP1 PUSH2 0x777 JUMP JUMPDEST PUSH1 0x0 PUSH1 0x40 MLOAD DUP1 DUP4 SUB DUP2 DUP6 DUP8 GAS CALL SWAP3 POP POP POP RETURNDATASIZE DUP1 PUSH1 0x0 DUP2 EQ PUSH2 0x44C JUMPI PUSH1 0x40 MLOAD SWAP2 POP PUSH1 0x1F NOT PUSH1 0x3F RETURNDATASIZE ADD AND DUP3 ADD PUSH1 0x40 MSTORE RETURNDATASIZE DUP3 MSTORE RETURNDATASIZE PUSH1 0x0 PUSH1 0x20 DUP5 ADD RETURNDATACOPY PUSH2 0x451 JUMP JUMPDEST PUSH1 0x60 SWAP2 POP JUMPDEST POP SWAP2 POP SWAP2 POP DUP2 PUSH2 0x496 JUMPI PUSH1 0x40 MLOAD PUSH32 0x8C379A000000000000000000000000000000000000000000000000000000000 DUP2 MSTORE PUSH1 0x4 ADD PUSH2 0x48D SWAP1 PUSH2 0x7E9 JUMP JUMPDEST PUSH1 0x40 MLOAD DUP1 SWAP2 SUB SWAP1 REVERT JUMPDEST POP POP POP POP JUMP JUMPDEST PUSH1 0x0 DUP1 PUSH1 0x0 DUP5 PUSH20 0xFFFFFFFFFFFFFFFFFFFFFFFFFFFFFFFFFFFFFFFF AND PUSH2 0x8FC DUP6 PUSH1 0x40 MLOAD PUSH2 0x4C8 SWAP1 PUSH2 0x777 JUMP JUMPDEST PUSH1 0x0 PUSH1 0x40 MLOAD DUP1 DUP4 SUB DUP2 DUP6 DUP9 DUP9 CALL SWAP4 POP POP POP POP RETURNDATASIZE DUP1 PUSH1 0x0 DUP2 EQ PUSH2 0x506 JUMPI PUSH1 0x40 MLOAD SWAP2 POP PUSH1 0x1F NOT PUSH1 0x3F RETURNDATASIZE ADD AND DUP3 ADD PUSH1 0x40 MSTORE RETURNDATASIZE DUP3 MSTORE RETURNDATASIZE PUSH1 0x0 PUSH1 0x20 DUP5 ADD RETURNDATACOPY PUSH2 0x50B JUMP JUMPDEST PUSH1 0x60 SWAP2 POP JUMPDEST POP SWAP2 POP SWAP2 POP DUP2 SWAP3 POP POP POP SWAP3 SWAP2 POP POP JUMP JUMPDEST CALLVALUE PUSH1 0x0 DUP1 DUP3 DUP3 SLOAD PUSH2 0x52C SWAP2 SWAP1 PUSH2 0x838 JUMP JUMPDEST SWAP3 POP POP DUP2 SWAP1 SSTORE POP JUMP JUMPDEST PUSH1 0x0 DUP1 REVERT JUMPDEST PUSH1 0x0 PUSH20 0xFFFFFFFFFFFFFFFFFFFFFFFFFFFFFFFFFFFFFFFF DUP3 AND SWAP1 POP SWAP2 SWAP1 POP JUMP JUMPDEST PUSH1 0x0 PUSH2 0x565 DUP3 PUSH2 0x53A JUMP JUMPDEST SWAP1 POP SWAP2 SWAP1 POP JUMP JUMPDEST PUSH2 0x575 DUP2 PUSH2 0x55A JUMP JUMPDEST DUP2 EQ PUSH2 0x580 JUMPI PUSH1 0x0 DUP1 REVERT JUMPDEST POP JUMP JUMPDEST PUSH1 0x0 DUP2 CALLDATALOAD SWAP1 POP PUSH2 0x592 DUP2 PUSH2 0x56C JUMP JUMPDEST SWAP3 SWAP2 POP POP JUMP JUMPDEST PUSH1 0x0 DUP2 SWAP1 POP SWAP2 SWAP1 POP JUMP JUMPDEST PUSH2 0x5AB DUP2 PUSH2 0x598 JUMP JUMPDEST DUP2 EQ PUSH2 0x5B6 JUMPI PUSH1 0x0 DUP1 REVERT JUMPDEST POP JUMP JUMPDEST PUSH1 0x0 DUP2 CALLDATALOAD SWAP1 POP PUSH2 0x5C8 DUP2 PUSH2 0x5A2 JUMP JUMPDEST SWAP3 SWAP2 POP POP JUMP JUMPDEST PUSH1 0x0 DUP1 PUSH1 0x40 DUP4 DUP6 SUB SLT ISZERO PUSH2 0x5E5 JUMPI PUSH2 0x5E4 PUSH2 0x535 JUMP JUMPDEST JUMPDEST PUSH1 0x0 PUSH2 0x5F3 DUP6 DUP3 DUP7 ADD PUSH2 0x583 JUMP JUMPDEST SWAP3 POP POP PUSH1 0x20 PUSH2 0x604 DUP6 DUP3 DUP7 ADD PUSH2 0x5B9 JUMP JUMPDEST SWAP2 POP POP SWAP3 POP SWAP3 SWAP1 POP JUMP JUMPDEST PUSH1 0x0 DUP2 ISZERO ISZERO SWAP1 POP SWAP2 SWAP1 POP JUMP JUMPDEST PUSH2 0x623 DUP2 PUSH2 0x60E JUMP JUMPDEST DUP3 MSTORE POP POP JUMP JUMPDEST PUSH1 0x0 PUSH1 0x20 DUP3 ADD SWAP1 POP PUSH2 0x63E PUSH1 0x0 DUP4 ADD DUP5 PUSH2 0x61A JUMP JUMPDEST SWAP3 SWAP2 POP POP JUMP JUMPDEST PUSH1 0x0 PUSH2 0x64F DUP3 PUSH2 0x53A JUMP JUMPDEST SWAP1 POP SWAP2 SWAP1 POP JUMP JUMPDEST PUSH2 0x65F DUP2 PUSH2 0x644 JUMP JUMPDEST DUP2 EQ PUSH2 0x66A JUMPI PUSH1 0x0 DUP1 REVERT JUMPDEST POP JUMP JUMPDEST PUSH1 0x0 DUP2 CALLDATALOAD SWAP1 POP PUSH2 0x67C DUP2 PUSH2 0x656 JUMP JUMPDEST SWAP3 SWAP2 POP POP JUMP JUMPDEST PUSH1 0x0 PUSH1 0x20 DUP3 DUP5 SUB SLT ISZERO PUSH2 0x698 JUMPI PUSH2 0x697 PUSH2 0x535 JUMP JUMPDEST JUMPDEST PUSH1 0x0 PUSH2 0x6A6 DUP5 DUP3 DUP6 ADD PUSH2 0x66D JUMP JUMPDEST SWAP2 POP POP SWAP3 SWAP2 POP POP JUMP JUMPDEST PUSH1 0x0 PUSH1 0x20 DUP3 DUP5 SUB SLT ISZERO PUSH2 0x6C5 JUMPI PUSH2 0x6C4 PUSH2 0x535 JUMP JUMPDEST JUMPDEST PUSH1 0x0 PUSH2 0x6D3 DUP5 DUP3 DUP6 ADD PUSH2 0x583 JUMP JUMPDEST SWAP2 POP POP SWAP3 SWAP2 POP POP JUMP JUMPDEST PUSH2 0x6E5 DUP2 PUSH2 0x598 JUMP JUMPDEST DUP3 MSTORE POP POP JUMP JUMPDEST PUSH1 0x0 PUSH1 0x20 DUP3 ADD SWAP1 POP PUSH2 0x700 PUSH1 0x0 DUP4 ADD DUP5 PUSH2 0x6DC JUMP JUMPDEST SWAP3 SWAP2 POP POP JUMP JUMPDEST PUSH1 0x0 DUP1 PUSH1 0x40 DUP4 DUP6 SUB SLT ISZERO PUSH2 0x71D JUMPI PUSH2 0x71C PUSH2 0x535 JUMP JUMPDEST JUMPDEST PUSH1 0x0 PUSH2 0x72B DUP6 DUP3 DUP7 ADD PUSH2 0x66D JUMP JUMPDEST SWAP3 POP POP PUSH1 0x20 PUSH2 0x73C DUP6 DUP3 DUP7 ADD PUSH2 0x5B9 JUMP JUMPDEST SWAP2 POP POP SWAP3 POP SWAP3 SWAP1 POP JUMP JUMPDEST PUSH1 0x0 DUP2 SWAP1 POP SWAP3 SWAP2 POP POP JUMP JUMPDEST POP JUMP JUMPDEST PUSH1 0x0 PUSH2 0x761 PUSH1 0x0 DUP4 PUSH2 0x746 JUMP JUMPDEST SWAP2 POP PUSH2 0x76C DUP3 PUSH2 0x751 JUMP JUMPDEST PUSH1 0x0 DUP3 ADD SWAP1 POP SWAP2 SWAP1 POP JUMP JUMPDEST PUSH1 0x0 PUSH2 0x782 DUP3 PUSH2 0x754 JUMP JUMPDEST SWAP2 POP DUP2 SWAP1 POP SWAP2 SWAP1 POP JUMP JUMPDEST PUSH1 0x0 DUP3 DUP3 MSTORE PUSH1 0x20 DUP3 ADD SWAP1 POP SWAP3 SWAP2 POP POP JUMP JUMPDEST PUSH32 0x4661696C656420746F2073656E64204574686572000000000000000000000000 PUSH1 0x0 DUP3 ADD MSTORE POP JUMP JUMPDEST PUSH1 0x0 PUSH2 0x7D3 PUSH1 0x14 DUP4 PUSH2 0x78C JUMP JUMPDEST SWAP2 POP PUSH2 0x7DE DUP3 PUSH2 0x79D JUMP JUMPDEST PUSH1 0x20 DUP3 ADD SWAP1 POP SWAP2 SWAP1 POP JUMP JUMPDEST PUSH1 0x0 PUSH1 0x20 DUP3 ADD SWAP1 POP DUP2 DUP2 SUB PUSH1 0x0 DUP4 ADD MSTORE PUSH2 0x802 DUP2 PUSH2 0x7C6 JUMP JUMPDEST SWAP1 POP SWAP2 SWAP1 POP JUMP JUMPDEST PUSH32 0x4E487B7100000000000000000000000000000000000000000000000000000000 PUSH1 0x0 MSTORE PUSH1 0x11 PUSH1 0x4 MSTORE PUSH1 0x24 PUSH1 0x0 REVERT JUMPDEST PUSH1 0x0 PUSH2 0x843 DUP3 PUSH2 0x598 JUMP JUMPDEST SWAP2 POP PUSH2 0x84E DUP4 PUSH2 0x598 JUMP JUMPDEST SWAP3 POP DUP3 DUP3 ADD SWAP1 POP DUP1 DUP3 GT ISZERO PUSH2 0x866 JUMPI PUSH2 0x865 PUSH2 0x809 JUMP JUMPDEST JUMPDEST SWAP3 SWAP2 POP POP JUMP INVALID LOG2 PUSH5 0x6970667358 0x22 SLT KECCAK256 0x29 CODECOPY 0xD0 MOD 0xDE SWAP8 PUSH10 0x8736E3AB79CC3911339E 0xEA 0x4E 0x22 SWAP9 ADDRESS SHL BASEFEE 0x4C SWAP2 LOG1 ISZERO 0xC4 PUSH30 0x625A64736F6C634300081100330000000000000000000000000000000000 "
				},
				"gasEstimates": {
					"creation": {
						"codeDepositCost": "442000",
						"executionCost": "480",
						"totalCost": "442480"
					},
					"external": {
						"deposit()": "infinite",
						"mysend(address,uint256)": "infinite",
						"mytransfer(address,uint256)": "infinite",
						"received()": "2429",
						"sendTo(address,uint256)": "infinite",
						"sendViaCall(address)": "infinite",
						"sendViaSend(address)": "infinite",
						"sendViaTransfer(address)": "infinite"
					}
				},
				"methodIdentifiers": {
					"deposit()": "d0e30db0",
					"mysend(address,uint256)": "a1712ece",
					"mytransfer(address,uint256)": "1cc09c9a",
					"received()": "83a6deb5",
					"sendTo(address,uint256)": "9e1a00aa",
					"sendViaCall(address)": "830c29ae",
					"sendViaSend(address)": "74be4806",
					"sendViaTransfer(address)": "636e082b"
				}
			},
			"storageLayout": {
				"storage": [
					{
						"astId": 89,
						"contract": "SendingEther.sol:SendEther",
						"label": "received",
						"offset": 0,
						"slot": "0",
						"type": "t_uint256"
					}
				],
				"types": {
					"t_uint256": {
						"encoding": "inplace",
						"label": "uint256",
						"numberOfBytes": "32"
					}
				}
			},
			"userdoc": {
				"kind": "user",
				"methods": {},
				"version": 1
			}
		}
	}
}